:10000000A2C10000BFC10000BDC10000BBC1000013
:10001000B9C10000B7C10000B5C10000B3C1000004
:10002000B1C10000AFC100000C9476120C944513CE
:10003000A9C10000A7C10000A5C10000A3C1000024
:10004000A1C100000C94480A9DC100009BC10000A2
:1000500099C1000097C1000095C1000093C1000044
:1000600091C100008FC100008DC100008BC1000054
:1000700089C1000087C1000085C1000083C1000064
:1000800081C100007FC100007DC100007BC1000074
:1000900079C1000077C1000048034C0055004600BC
:1000A000410020004D0061007300730020005300E8
:1000B00074006F007200610067006500200061003D
:1000C0006E00640020004B006500790062006F0044
:1000D0006100720064002000440065006D006F0044
:1000E000000018034400650061006E00200043001A
:1000F00061006D00650072006100000004030904E6
:1001000009023900020100803209040000020806D9
:100110005000070583024000050705040240000562
:10012000090401000103010100092111010001225C
:1001300040000705810308000512011001000000BE
:1001400008EB03612001000102DC0105010906A1A1
:1001500001050719E029E7150025017501950881BA
:100160000295017508810105081901290595057594
:10017000019102950175039101150026FF00050705
:10018000190029FF950675088100C05220256C6969
:100190002025690D0A005720256C692025690D0A64
:1001A00000534420626C6F636B733A20256C690DB9
:1001B0000A006469736B5F696E697469616C697A5E
:1001C0006520737563636573730D0A0074727969D2
:1001D0006E67202E2E2E206469736B5F696E6974C2
:1001E00069616C697A650D0A000D0A0D0A00526595
:1001F0006164790D0A00446973636F6E6E656374A0
:100200000D0A00436F6E6E6563740D0A00706F72A5
:100210007465642066726F6D204C5546415F3039BD
:100220003132323320687474703A2F2F7777772EFB
:10023000666F757277616C6C656463756269636C17
:10024000652E636F6D2F4C5546412E706870202DC2
:1002500020626173656420696E204D617468696510
:100260007520536F6E6574206C7566612D736463C1
:100270006172642D6D6173732D73746F7261676544
:100280002D64656D6F20666F72205465656E73799D
:10029000322041544D4547413332553420687474FF
:1002A00070733A2F2F6269746275636B65742E6F79
:1002B00072672F656C617374696373686565702F0D
:1002C0006C7566612D7364636172642D6D61737307
:1002D0002D73746F726167652D64656D6F2F737216
:1002E000632F64656661756C742F207573696E6722
:1002F00020687474703A2F2F7777772E726F6C6145
:100300006E642D72696567656C2E64652F73642D4C
:100310007265616465722F696E6465782E68746DAC
:100320006C204D4D432F53442F5344484320636169
:10033000726420726561646572206C6962726172B8
:10034000790D0A0D0A0011241FBECFEFD0E2DEBFE7
:10035000CDBF12E0A0E0B1E0E4E8F0E300E00BBFC5
:1003600002C007900D92A435B107D9F726E0A4E5A5
:10037000B2E001C01D92A638B207E1F70E94E50A7B
:100380000C9440183DCE292F332723303105E1F05E
:1003900058F42130310599F02230310569F589E3AF
:1003A00090E020E031E02CC02132310501F1223211
:1003B000310511F580E490E02BE431E021C082E1C9
:1003C00090E029E331E01CC099278130910549F084
:1003D00028F0029789F4E8E9F0E005C0ECEFF0E0DE
:1003E00002C0E2EEF0E0849190E09F0109C089E054
:1003F00090E029E231E004C080E090E020E030E0CD
:10040000FA01318320830895811101C0FAC081E08F
:1004100008950F931F93FB01BA01A901980181115F
:1004200004C0CF011F910F91A8C184E01F910F91CB
:1004300008950F931F93FB01BA01A901980181113F
:1004400004C0CF011F910F91DAC184E01F910F9179
:100450000895962F811103C0BA01892F45C284E007
:100460000895DEC41CBC22982A9808958EBD0DB450
:1004700007FEFDCF8EB508956AE070E00E940B156F
:10048000609355028FEFF2DF282F8F3F21F080918C
:1004900055028111F7CF81E090E02F3F11F080E00D
:1004A00090E00895289A8FEFE1CFCF93DF932898BB
:1004B0008FEFDCDF84EF91E0DFDFEC01892B11F4BB
:1004C000F1DF02C0C1E0D0E0CE01DF91CF9108950D
:1004D000FF920F931F93CF93DF93C82FD42F152F25
:1004E000062FF72E87FF08C040E050E0BA0187E3EF
:1004F000EFDF823058F5CF77CC3071F48C2F8064E9
:10050000B5DF8F2DB3DF802FB1DF812FAFDF8D2FD0
:10051000ADDFCC23C9F006C0C5DFC7DF892B71F77B
:100520008FEF14C0C83011F487E801C081E09EDF6E
:10053000CC3011F48FEF9ADFCAE08FEF97DF87FF9F
:1005400005C0C150D1F702C085E9F5CFDF91CF9149
:100550001F910F91FF9008950F931F93CF93DF93F7
:100560008C01EB0184E1809356028FEF7FDF8F3F98
:1005700029F4809156028111F8CF1BC08E3FC9F437
:10058000F8018FEF8EBD0DB407FEFDCF9EB59083B1
:100590008EBD0DB407FEFDCF9EB591832297329696
:1005A000209781F78FEF62DF8FEF60DF81E090E0CF
:1005B00002C080E090E0DF91CF911F910F910895EC
:1005C0009C013E5FFC0140814EBD0DB407FEFDCF96
:1005D000FC0141814EBD0DB407FEFDCF029682178E
:1005E000930781F78FEF42DF8FEF40DF8FEF3EDF22
:1005F000282F2F7181E090E0253011F080E090E00D
:100600000895CF92DF92EF92FF920F931F93CF93B3
:10061000DF9300D000D0CDB7DEB724DF8AE080932F
:100620005602809156028111FCCF8091000181FD1C
:1006300095C087E085B984B983E58CBD82E58CBD22
:100640001AE08FEF13DF1150E1F740E050E0BA01FC
:1006500080E03EDF813009F070C084E6809356026E
:100660004AEA51E060E070E088E032DF813009F072
:100670003FC08E010F5F1F4F6E0185E0C80ED11C79
:1006800078018FEFF3DEF70181937F01CE16DF064D
:10069000C1F78B81813009F050C08C818A3A09F012
:1006A0004CC080915602811106C080915602882369
:1006B00009F443C009C040E050E060E070E489EA1A
:1006C00007DF8111EECFF1CF40E050E0BA018AE3BD
:1006D000FFDE811132C08FEFC9DEF80181938F01F7
:1006E000CE16DF06C1F7898186FD29C014E028C037
:1006F00040E050E0BA0189EAEBDE823018F011E008
:1007000001E002C012E009EA80915602811105C0A1
:1007100080915602882389F008C040E050E0BA0179
:10072000802FD6DE8111F0CFF3CF40E052E060E0C1
:1007300070E080E1CDDE882319F010E001C01CE0FC
:1007400010935402AFDE112341F0809100018E7F9F
:100750008093000181E58CBD01C084DE80910001A1
:100760000F900F900F900F90DF91CF911F910F91ED
:10077000FF90EF90DF90CF900895EF92FF921F933C
:10078000CF93DF937C01E901209781F180910001F3
:1007900080FD2EC08091540283FD07C089E0440F84
:1007A000551F661F771F8A95D1F7C230D10510F407
:1007B00011E101C012E1812F8BDE811111C060E0D7
:1007C00072E0C701C9DE892B21F08EEFF81A21975C
:1007D000B1F7123129F440E050E0BA018CE078DE44
:1007E00061DE81E0CD2B29F480E003C084E001C00C
:1007F00083E0DF91CF911F91FF90EF900895CF920A
:10080000DF92EF92FF920F931F93CF93DF938C01B0
:100810006A017B01E901209709F458C08091000129
:1008200080FD56C08091000182FD54C08091540229
:1008300083FD07C099E0CC0CDD1CEE1CFF1C9A95D3
:10084000D1F7C130D105D1F4B701A60188E140DE6E
:10085000882319F0C1E0D0E033C084EF91E00CDED2
:10086000892BC1F38EEF02DEC801AADE31E020E061
:10087000892B09F030E0C32FD22F22C0867029F0D7
:10088000AE0160E070E087E923DEB701A60189E1EF
:100890001FDE811115C084EF91E0EEDD892B49F058
:1008A0008CEFE4DDC8018CDE892B19F01E5F2197E7
:1008B00091F784EF91E0E0DD892B61F28DEFD6DDD9
:1008C000F1DD81E0CD2B39F480E005C084E003C088
:1008D00083E001C082E0DF91CF911F910F91FF90E3
:1008E000EF90DF90CF900895BF92CF92DF92EF927A
:1008F000FF920F931F93CF93DF93CDB7DEB760972F
:100900000FB6F894DEBF0FBECDBF9091000190FDF1
:1009100073C28B01833309F44DC198F4833009F419
:100920008AC028F4882309F1813009F167C2873031
:1009300009F475C1823309F437C1843009F05EC20D
:10094000EAC0863309F459C138F4843309F437C155
:10095000853309F43EC152C2883309F4C0C108F49A
:1009600065C1893309F408C249C29FDD53C140E023
:1009700050E0BA0189E0ACDD81113BC260E170E07A
:10098000CE010196E9DD892B09F433C29981929554
:1009900096959695937029854A8588859130D9F4E6
:1009A00030E0322F2227240F311D8F7390E0A0E01A
:1009B000B0E0DC01992788270196A11DB11D820FA7
:1009C000931FA11DB11D5AE0880F991FAA1FBB1FBD
:1009D0005A95D1F729C02295269526952370F4E0E3
:1009E0008F9FC0011124820F911D01962F812370CA
:1009F00030E0322F2227330F330F820F931FA0E0F6
:100A0000B0E02E81322F3F702B85221F2227221F1C
:100A1000230F4370440F420F475004C0880F991FA3
:100A2000AA1FBB1F4A95D2F7F80180839183A28346
:100A3000B38310E0DFC1F090540240E050E0BA010F
:100A4000F2FE24C08DE844DD8111D3C18FEF0EDDAD
:100A500060E170E0CE0101967FDD892B09F4C9C108
:100A6000A0E3FA2E8FEF02DDFA94F110FBCF2B8575
:100A700022952F7080E190E0A0E0B0E004C0880FE4
:100A8000991FAA1FBB1F2A95D2F7CECF89E020DD80
:100A90008111AFC160E170E0CE0101965DDD892B6F
:100AA00009F4A7C12B858C85F1FE16C02F73881F12
:100AB0008827881F90E00196820F911D820F911D5B
:100AC0002E852295269526952370215002C0880FE9
:100AD000991F2A95E2F71CC0382F337082958695AE
:100AE000877090E0F8E03F9F800D911D11240196E2
:100AF0002C7730E035952795359527952F5F3F4F1B
:100B0000829FA001839F500D929F500D1124CA0116
:100B1000A0E0B0E089CFB09054028B2D867011F424
:100B200011E06DC1BE016F5F7F4F83E3DDDE811198
:100B3000F7CF8981829586958695837019F48B8588
:100B400086FFEECFF8014081518162817381C480BC
:100B5000D580E680F780B3FC0EC039E0440F551F06
:100B6000661F771F3A95D1F7E9E0CC0CDD1CEE1C2F
:100B7000FF1CEA95D1F780E2ABDC8111D1CFB70140
:100B8000A60181E2A5DC8111CBCF40E050E0BA01A3
:100B900086E29EDC8111C4CF80E395E76DDC11E035
:100BA000892B09F42CC104C080915402FB0180837D
:100BB00010E025C140E050E0BA0189E004C040E007
:100BC00050E0BA018AE084DC811113C160E170E079
:100BD0001FC040E050E0BA018AE37ADC811109C10C
:100BE0007801F4E0EF0EF11C8FEF40DCF801819307
:100BF0008F01EE15FF05C1F71CCF40E050E0BA01B0
:100C00008DE866DC8111F5C08FEF30DC60E470E0C8
:100C1000C801A2DC11E0892B09F4ECC00ACF22DC68
:100C200080910001816080930001C2CFFB0143816C
:100C300054816581768139E0440F551F661F771F07
:100C40003A95D1F77068808190E0A0E0B0E02CE1A7
:100C5000880F991FAA1FBB1F2A95D1F7482B592B24
:100C60006A2B7B2B8181928101979170A0E0B0E08B
:100C7000482B592B6A2B7B2B80E32ADC8111B9C0CE
:100C800084E6809356028FEFF1DB8F3F29F4809149
:100C900056028111F8CFADC08E3F09F0AAC0F8010D
:100CA000E780F084C180D280CE0CDF1CEC14FD0400
:100CB00031F08FEFDBDBF70181937F01F7CFF80194
:100CC0008181928102E012E0081B190B01151105C8
:100CD00009F4AFCE8FEFCADB01501109F7CFFB014A
:100CE000438154816581768139E0440F551F661F29
:100CF000771F3A95D1F77068808190E0A0E0B0E06E
:100D00002CE1880F991FAA1FBB1F2A95D1F7482BEA
:100D1000592B6A2B7B2B8181928101979170A0E0E6
:100D2000B0E0482B592B6A2B7B2B81E3D1DB81115F
:100D300060C08FEF9BDB8EEF99DBF801E780F084DA
:100D4000C180D280CE0CDF1CEC14FD0429F0F70129
:100D500081917F018BDBF8CFF8018181928102E0E4
:100D600012E0081B190B8FEF0115110509F43BC0A8
:100D70007DDB01501109F7CFFB014381548165816F
:100D8000768189E0440F551F661F771F8A95D1F73A
:100D90007468808190E0A0E0B0E02CE1880F991F9A
:100DA000AA1FBB1F2A95D1F7482B592B6A2B7B2BE7
:100DB000828190E0A0E0B0E0482B592B6A2B7B2B7E
:100DC00081E386DB811115C08FEF50DB8EEF4EDBA8
:100DD000F80181814BDB01E012E08FEF47DB01502E
:100DE0001109D9F78FEF42DB8F7111E0853011F4D3
:100DF00020CE11E057DB03C013E001C014E0812FC7
:100E000060960FB6F894DEBF0FBECDBFDF91CF91D5
:100E10001F910F91FF90EF90DF90CF90BF900895BA
:100E200080915602882319F0815080935602809158
:100E30005502882319F08150809355020895BF927E
:100E4000CF92DF92EF92FF920F931F93CF93DF9396
:100E5000EC01B62EC8A0DF8CEE8CFD8C0BA11AA184
:100E600081D1C616D706E806F90668F0809103011D
:100E7000807F85608093030181E280930D01109251
:100E80000E0180E022C09801B701A601CE01BB206F
:100E900011F05CD201C0F6D1C801A0E0B0E029E0B9
:100EA000880F991FAA1FBB1F2A95D1F74C895D890E
:100EB0006E897F898A019B01081B190B2A0B3B0B4A
:100EC0000C8B1D8B2E8B3F8B81E0DF91CF911F917F
:100ED0000F91FF90EF90DF90CF90BF900895CF9249
:100EE000DF92EF92FF920F931F93CF93DF93CDB7D3
:100EF000DEB728970FB6F894DEBF0FBECDBF8C01CA
:100F0000FC01838D8D3109F4ADC090F4823109F478
:100F10004FC038F4882309F4D9C0833009F47CC069
:100F2000DBC08A3109F4B8C08B3109F4CFC0D4C01A
:100F3000883209F4ABC0A8F58E3109F4C7C08532F8
:100F400009F0CAC00FD1DC01CB010197A109B10999
:100F50008D839E83AF83B88780E092E0A0E0B0E00D
:100F600089839A83AB83BC8340E050E064E070E007
:100F7000CE0105960E94C20F40E050E064E070E0B0
:100F8000CE010196FFD78091E8008E778093E8002C
:100F9000F80184899589A689B7890897A109B109BB
:100FA00090C08A3209F470C08F3209F48FC094C0A7
:100FB000F801E78CF68C848D837019F4858D882375
:100FC00041F080910301807F85608093030184E27A
:100FD0008AC06701F5E2EF16F10418F094E2C92E19
:100FE000D12C40E050E0B6018CE591E082D760E082
:100FF00070E0C7018C199D093DD78091E8008E777C
:101000008093E800F80184899589A689B7898C19AD
:101010009D09A109B10955C0F801F78CEF2CF2E147
:10102000FF1510F482E1E82ECE2CD12C40E050E0E8
:10103000B60181E091E05DD78F2D90E060E070E037
:101040008C199D0917D78091E8008E778093E8006E
:10105000F80184899589A689B7898E199109A10912
:10106000B1092FC0F801848D82FFABCF0AD2811164
:101070002DC080910301807F8460809303011092D2
:101080000D0110920E013DC060E001C061E0C80199
:10109000D6DE81112BC035C01092F1001092F10004
:1010A0001092F1001092F1008091E8008E77809309
:1010B000E800F80184899589A689B7890497A10970
:1010C000B109848B958BA68BB78B10C0F801148A5D
:1010D000158A168A178A0AC080910301807F85606D
:1010E0008093030180E280930D01CBCF80910301B7
:1010F000807F8093030110920D0110920E0181E018
:1011000001C080E028960FB6F894DEBF0FBECDBFB9
:10111000DF91CF911F910F91FF90EF90DF90CF90D3
:101120000895CF93DF9389EE91E09F938F930E9470
:101130003C150F900F90CCECD1E0DF93CF930E9441
:101140003C1580E061D90F900F908111F6CF82EBB2
:1011500091E09F938F930E943C150F900F90DF9129
:10116000CF910895CF93DF9300D000D0CDB7DEB7F5
:1011700019821A821B821C82609157067091580650
:101180008091590690915A06611571058105910566
:1011900051F5AE014F5F5F4F61E080E05AD9898120
:1011A0009A812B813C818093570690935806209317
:1011B000590630935A063F932F939F938F9381EA5A
:1011C00091E09F938F930E943C1560915706709118
:1011D00058068091590690915A060F900F900F90E3
:1011E0000F900F900F900F900F900F900F90DF9136
:1011F000CF910895CF93DF93EC018091E80085FFB4
:1012000033C08091F10088838091F10089838091BF
:10121000F1008A838091F1008B838091F1008C83AF
:101220008091F1008D838091F1008E838091F10097
:101230008F838091F10088878091F1008987809168
:10124000F1008A878091F1008B878091F1008C8773
:101250008091F1008D878091F1008E878091F1005F
:101260008F8780E190E00BC08091E8008B778093BE
:10127000E8000E94E311882321F280E090E0DF91F2
:10128000CF9108958F929F92AF92BF92CF92DF92AB
:10129000EF92FF920F931F93CF93DF937C014A014C
:1012A0005B01E901DF93CF93BF92AF929F924F937F
:1012B00086E991E09F938F930E943C150E94E31171
:1012C000EDB7FEB738960FB6F894FEBF0FBEEDBF70
:1012D00081112FC087E5C82E86E0D82E209701F116
:1012E00007E514E040E050E060E070E0C80182DF14
:1012F000005F1F4FC016D106A9F701E010E0A5015D
:10130000940167E574E080E094D8F70180AD811125
:1013100010C0FFEF8F1A9F0AAF0ABF0A2197DECFD6
:101320008091E80085FD05C08091E8008B7780936F
:10133000E800DF91CF911F910F91FF90EF90DF9028
:10134000CF90BF90AF909F908F9008958F929F9273
:10135000AF92BF92CF92DF92EF92FF920F931F93C3
:10136000CF93DF934A015B017901FF922F93BF92E4
:10137000AF929F924F938BE891E09F938F930E943F
:101380003C150E94E3112DB73EB7285F3F4F0FB6C3
:10139000F8943EBF0FBE2DBF811166C087E5C82EF1
:1013A00084E0D82EE114F10409F455C001E010E006
:1013B000A501940167E572E080E02BD8C7E5D2E093
:1013C0008091E80085FF31C088818093F100898198
:1013D0008093F1008A818093F1008B818093F100EA
:1013E0008C818093F1008D818093F1008E818093B8
:1013F000F1008F818093F10088858093F1008985C9
:101400008093F1008A858093F1008B858093F100B1
:101410008C858093F1008D858093F1008E8580937B
:10142000F1008F858093F10008C08091E8008E77ED
:101430008093E800C8D7882339F26096CC16DD0681
:1014400009F0BECF3FEF831A930AA30AB30A81E0E3
:10145000E81AF108A7CF8091E80085FD05C08091CA
:10146000E8008E778093E800DF91CF911F910F9174
:10147000FF90EF90DF90CF90BF90AF909F908F90B4
:10148000089581E008959BB19F70892B8BB90895D1
:101490001F920F920FB60F9211240BB60F922F933B
:1014A0003F934F935F936F937F938F939F93AF93EC
:1014B000BF93EF93FF93809163069091640601962A
:1014C00090936406809363060E943102FF91EF912E
:1014D000BF91AF919F918F917F916F915F914F914C
:1014E0003F912F910F900BBE0F900FBE0F901F904A
:1014F000189584B7877F84BF0FB6F894A89580911C
:101500006000886180936000109260000FBE90E0E0
:1015100080E80FB6F89480936100909361000FBE4D
:101520008FEF82B985B988B98BB981BB10928000E1
:10153000E1E8F0E01082808188608083AFE6B0E06F
:101540008C9182608C9380E29EE4909389008093DA
:101550008800808182608083789483E390E0909318
:10156000CD008093CC0086E08093CA001092C80022
:1015700088E18093C900539A5A9A80E891E0DBD0C1
:1015800080E090E0E4D08CE192E00E9463158DE071
:1015900092E09F938F930E943C15C3DD8AB1806FC8
:1015A0008AB98BB18F708BB96A98729A84B18F7136
:1015B00084B98DB18F7C8DB985B1806E85B98EB1BE
:1015C00080638EB90F900F9076C793DF80E15BDF69
:1015D000789483E291E038D383E191E01ED20E94B7
:1015E000F114F7CF83E092E09F938F930E943C1514
:1015F0000F900F9080EA47CF86EF91E09F938F93F3
:101600000E943C150F900F9080E13DCFCF938EEE5E
:1016100091E09F938F930E943C1583E191E0EAD182
:10162000C82F83E291E0F3D29091E200946090930E
:10163000E2000F900F90CC2311F0811102C080E9DD
:1016400001C080E6CF911FCF83E291E09FD283E17A
:1016500091E09BC0CF93DF93EC0180E214DFCE01D9
:101660003EDCC82F80E60FDF8C2FDF91CF910895ED
:101670008091210190912201009729F00197909388
:1016800022018093210108950F931F93F90183B1E3
:101690009CB19095907396958095807E892B9CB196
:1016A000909522E0208387FF02C024E003C084FFDE
:1016B00002C025E0228386FF02C026E003C083FF2C
:1016C00002C027E0228385FF02C088E0828392FF68
:1016D00002C089E0828388E090E0F80191838083F2
:1016E00080E01F910F910895F901908190FF02C051
:1016F00080E101C080E091FD806892FD8064C3CEEE
:101700009091C80095FFFCCF8093CE0080E090E0E0
:1017100008958091C80087FF08C08091C80087FFA6
:1017200007C08091CE0090E008958EEF9FEF08955E
:101730008FEF9FEF0895FC019191992339F08091EB
:10174000C80085FFFCCF9093CE00F6CF0895FC0132
:10175000892B59F485E696E0909381068093800664
:101760009093830680938206FC018EE0DF011D9238
:101770008A95E9F783E0838380E89BE091878087FF
:1017800089E89BE09387828708956F927F928F927A
:101790009F92AF92BF92CF92DF92EF92FF920F9300
:1017A0001F93CF93DF9300D01F92CDB7DEB77C019C
:1017B000ADB6BEB68091E80083FF05C1F701808118
:1017C00090E020917C0630917D062817390709F0BA
:1017D000FAC080917906833009F49CC030F48130DE
:1017E00071F0823009F4D3C0EEC08A3009F4B7C07A
:1017F0008B3009F4A0C0893009F0E5C04EC080915B
:101800007806813A09F0DFC08DB69EB61A82198239
:1018100080917A0610917B068B83F7018085482F93
:1018200050E08DB79EB7841B950B0FB6F8949EBF02
:101830000FBE8DBFEDB7FEB731966F0160E070E06F
:10184000CF010E9435154FEF410F8E010F5F1F4FE3
:101850009601BE016D5F7F4FC70116DFF7018681DC
:101860009781009729F0408550E0B6010E942C1521
:101870001092E9008091E800877F8093E8008B81D7
:1018800081118093F10069817A81C60112D480911F
:10189000E8008B778093E80037C08091780681322A
:1018A00009F091C08DB69EB600917E0610917F061C
:1018B00070907A0660907B068DB79EB7801B910B67
:1018C0000FB6F8949EBF0FBE8DBFEDB7FEB7319631
:1018D0006F018091E800877F8093E800B801CF0115
:1018E00044D48091E8008E778093E80021E0711065
:1018F00001C020E030E0021B130B2C0D3D1D4FEF0B
:10190000460D672DC701F0DE0FB6F8949EBE0FBEE0
:101910008DBE59C080917806813A09F054C08091FB
:10192000E800877F8093E8008091E80080FFFCCF8B
:10193000F701818540C080917806813209F043C06B
:101940008091E800877F8093E8001ED590917A0609
:1019500081E0911101C080E0F701818734C080915E
:101960007806813281F58091E800877F8093E800D6
:101970000BD580917A0690917B06882736E0969564
:1019800087953A95E1F7F701958784871CC0809188
:101990007806813AC1F48091E800877F8093E8005F
:1019A0008091E80080FFFCCFF701848595859695AE
:1019B0008795969587958093F1008091E8008E77C2
:1019C0008093E800E1D40FB6F894BEBE0FBEADBE62
:1019D0000F900F900F90DF91CF911F910F91FF907B
:1019E000EF90DF90CF90BF90AF909F908F907F90BF
:1019F0006F900895FC01399627E0DF011D922A952A
:101A0000E9F721E0FC01218724EF31E035872487C5
:101A100023E0248361E001967AC45F926F927F9203
:101A20008F929F92AF92BF92CF92DF92EF92FF92EE
:101A30000F931F93CF93DF9300D01F92CDB7DEB7E4
:101A40007C01ADB6BEB680917706843009F086C0C1
:101A50008091E4009091E500F701228533852817F5
:101A6000390709F47BC081818F708093E9008091F0
:101A7000E80085FF73C08DB69EB6408550E08DB7F7
:101A80009EB7841B950B0FB6F8949EBF0FBE8DBFFB
:101A9000EDB7FEB731966F011B821A82198260E0A2
:101AA00070E0CF01E2D78E010F5F1F4F960140E03B
:101AB000BE016D5F7F4FC701E7DD582EF7018485BA
:101AC0009585892B29F011E086859785892B09F06A
:101AD00010E0F701668077806114710481F049811C
:101AE0005A81B301C601ABD701E0892B09F400E0AC
:101AF000F701408550E0B601C301AED701C000E058
:101B000089819A81892BF1F0511004C0011102C022
:101B100010FF18C0F7018485958597878687818196
:101B20008F708093E9008B8181118093F10069812E
:101B30007A8140E050E0C601DCD18091E8008E77E8
:101B40008093E8008091E4009091E500F70193878D
:101B500082870FB6F8949EBE0FBE8DBE0FB6F89466
:101B6000BEBE0FBEADBE0F900F900F90DF91CF9114
:101B70001F910F91FF90EF90DF90CF90BF90AF90AB
:101B80009F908F907F906F905F900895CF93DF9399
:101B90002091E80023FF38C0FC01208130E0409113
:101BA0007C0650917D064217530771F52091790606
:101BB0002E3F81F02F3F41F520917806213221F50B
:101BC000EC018091E800877F8093E800DDD381E01D
:101BD00088AF1AC020917806213AB1F42091E8002C
:101BE000277F2093E8002091E80020FFFCCFFC0134
:101BF000838581508093F1008091E8008E778093F7
:101C0000E800DF91CF91C0C3DF91CF910895CF93CA
:101C1000DF93EC01FC013C968DE2DF011D928A9579
:101C2000E9F782E08C83898761E0CE0101966FD36A
:101C3000882331F061E0CE010696DF91CF9167C332
:101C400080E0DF91CF910895EF92FF920F931F9361
:101C5000CF93DF9300D0CDB7DEB720917706243045
:101C600009F0FFC08C01FC0186818F708093E90030
:101C70008091E80082FFBCC086818F708093E9006C
:101C80001A8219827801FCE0EF0EF11CAE014F5F61
:101C90005F4F6FE070E0C701C3D1F801853021F4D8
:101CA00080AD882399F3A4C084859585A685B785E2
:101CB00085359345A244B34461F4F801918D838541
:101CC000981738F4808D8F7121F4828D8150803186
:101CD00080F08091EB0080628093EB00F8018181BD
:101CE0008F708093E9008091EB0080628093EB001D
:101CF0007FC01A8219827801FBE1EF0EF11CF80116
:101D0000628D70E0AE014F5F5F4FC70189D18530B2
:101D100029F4F80180AD882391F36AC08091E8002E
:101D20008B778093E800F801808D87FF04C0818164
:101D30008F708093E900C8018DDC91E09827F8014D
:101D400097AB45E553E562E473E543A754A765A760
:101D500076A7408951896289738947A750AB61ABE7
:101D600072AB448955896689778943AB54AB65ABBF
:101D700076AB811109C0452B462B472B29F080916A
:101D8000EB0080628093EB00F80186818F70809376
:101D9000E9008091EB00F80185FF04C080AD882345
:101DA000C1F326C081818F708093E9008091EB00A0
:101DB00085FF05C0F80180AD8823C1F319C01A82E0
:101DC00019827801FBE2EF0EF11CAE014F5F5F4F0D
:101DD0006DE070E0C7018DD0853029F4F80180AD49
:101DE000882399F305C08091E8008E778093E800FE
:101DF000F80180AD8823A9F126812F7081E090E061
:101E0000AC0102C0440F551F2A95E2F74093EA0047
:101E10001092EA0021812F7001C0880F2A95EAF7FD
:101E20008093EA001092EA0086818F708093E90027
:101E30008091EB0080618093EB008091EB008860E3
:101E40008093EB0081818F708093E9008091EB009B
:101E500080618093EB008091EB0088608093EB00C1
:101E600010AE0F900F90DF91CF911F910F91FF90C7
:101E7000EF900895EF92FF920F931F93CF93DF930C
:101E8000EC018B01A0D281112DC00115110529F0A3
:101E9000F80180819181C81BD90BE12CF12C20978E
:101EA00001F18091E80085FD15C08091E8008E77F2
:101EB0008093E8000115110549F0F80180819181B6
:101EC000E80EF91EF182E08285E00CC07CD2882306
:101ED00031F308C01092F1002197FFEFEF1AFF0ACB
:101EE000DECF80E0DF91CF911F910F91FF90EF90B7
:101EF0000895CF92DF92EF92FF920F931F93CF93AB
:101F0000DF93EC018B017A015ED2811132C0E114C2
:101F1000F10439F0F70180819181081B190BC80F7A
:101F2000D91FC12CD12C0115110511F18091E800A8
:101F300085FD15C08091E8008E778093E800E1145C
:101F4000F10449F0F70180819181C80ED91ED18238
:101F5000C08285E00EC037D2882329F30AC0899158
:101F60008093F10001501109FFEFCF1ADF0ADBCF98
:101F700080E0DF91CF911F910F91FF90EF90DF9064
:101F8000CF900895CF92DF92EF92FF920F931F931D
:101F9000CF93DF93EC018B017A0115D2811137C009
:101FA000C8010197C80FD91FE114F10439F0F701F6
:101FB00080819181081B190BC81BD90BC12CD12C16
:101FC0000115110519F18091E80085FD15C080917A
:101FD000E8008E778093E800E114F10449F0F701FE
:101FE00080819181C80ED91ED182C08285E00FC048
:101FF000EAD1882329F30BC088818093F1002197CF
:1020000001501109FFEFCF1ADF0ADACF80E0DF912C
:10201000CF911F910F91FF90EF90DF90CF90089597
:10202000CF92DF92EF92FF920F931F93CF93DF93A4
:10203000EC018B017A01C7D1811132C0E114F104A6
:1020400039F0F70180819181081B190BC80FD91F46
:10205000C12CD12C0115110511F18091E80085FDED
:1020600015C08091E8008B778093E800E114F104BB
:1020700049F0F70180819181C80ED91ED182C082BA
:1020800085E00EC0A0D1882329F30AC08091F10019
:10209000899301501109FFEFCF1ADF0ADBCF80E0EF
:1020A000DF91CF911F910F91FF90EF90DF90CF9034
:1020B000089520917E0630917F062617370748F055
:1020C0006115710539F42091E8002E772093E8001E
:1020D00001C0B901FC0120E06115710569F1809131
:1020E00077068823E1F18530E1F18091E80083FDF6
:1020F0003AC08091E80082FD2CC08091E80080FF0A
:10210000EBCF8091F2009091F3006115710551F0D1
:102110008830910538F421912093F10061507109C4
:102120000196F3CF21E0089709F020E08091E800C4
:102130008E778093E800D0CF2111D1CF0AC0809153
:102140007706882361F0853061F08091E80083FD97
:102150000AC08091E80082FFF2CF80E0089582E01B
:10216000089583E0089581E008956115710529F4CB
:102170002091E8002B772093E800FC0161157105A0
:1021800031F180917706882351F1853051F18091AA
:10219000E80083FD22C08091E80082FFEFCF8091AC
:1021A000F2009091F300892B31F08091F10081933E
:1021B00061507109A1F78091E8008B778093E80066
:1021C000DDCF80917706882351F0853051F08091E2
:1021D000E80080FFF6CF80E0089581E0089582E076
:1021E000089583E0089520917E0630917F0626179A
:1021F000370748F06115710539F42091E8002E7712
:102200002093E80001C0B901FC0120E061157105CF
:1022100081F180917706882309F43EC0853009F466
:102220003DC08091E80083FD3BC08091E80082FDC5
:102230002DC08091E80080FFE9CF8091F20090915D
:10224000F3006115710559F08830910540F424912F
:102250002093F1003196615071090196F2CF21E08F
:10226000089709F020E08091E8008E778093E800DD
:10227000CDCF2111CECF0AC080917706882361F09F
:10228000853061F08091E80083FD0AC08091E8000C
:1022900082FFF2CF80E0089582E0089583E0089500
:1022A00081E00895982F973068F59093E90098178A
:1022B00039F07091EC002091ED005091F00003C0D6
:1022C000242F762F50E021FD02C09F5FECCF30918C
:1022D000EB003E7F3093EB003091ED003D7F30937B
:1022E000ED003091EB0031603093EB007093EC0027
:1022F0002093ED005093F0002091EE0027FDE5CFF4
:1023000080E008958F708093E90081E008950F9335
:102310001F93CF93DF93062FEC0110E0101771F19C
:102320006881611103C01F5F2596F8CF2C81A981B8
:10233000BA819B81862F8F70873010F080E01FC09C
:10234000223010F442E001C046E0E8E0F0E020E096
:10235000EA17FB0720F42F5FEE0FFF1FF9CF22953E
:10236000207F422B50E4959F90011124661F662721
:10237000661F622B97DF8111D6CFE0CF81E0DF911E
:10238000CF911F910F9108958091780687FF11C01A
:102390008091E80082FD05C0809177068111F8CF19
:1023A00011C08091E8008B770BC08091770688235D
:1023B00049F08091E80080FFF8CF8091E8008E77A7
:1023C0008093E80008952091E4003091E50095E6BF
:1023D0004091EC00842F817040FF23C08091E80081
:1023E00080FD1DC080917706882399F0853099F093
:1023F0008091EB0085FD11C04091E4005091E50013
:102400002417350729F3915011F09A01E1CF84E0A8
:10241000089582E0089583E0089581E0089580E0C2
:1024200008954091E80042FFDDCF08950F931F9378
:10243000CF93DF934ED055D0C8EDD0E088818F7711
:10244000888388818068888388818F7D8883E7ED91
:10245000F0E080818068808319BC1092770610922A
:102460007306109275061092740600EE10E0F801E3
:1024700080818B7F808388818160888342E060E0F7
:1024800080E010DFE1EEF0E080818E7F8083E2EE7D
:10249000F0E0808181608083808188608083F801A2
:1024A00080818E7F8083888180618883DF91CF9156
:1024B0001F910F910895E8EDF0E080818F7E808379
:1024C000E7EDF0E080818160808381E08093760693
:1024D000ADCFE8EDF0E080818C7F80831092E20048
:1024E00008951092DA001092E10008951F920F9261
:1024F0000FB60F9211240BB60F922F933F934F9369
:102500005F936F937F938F939F93AF93BF93EF935B
:10251000FF938091E10082FF0AC08091E20082FF78
:1025200006C08091E1008B7F8093E100A1D880916B
:10253000DA0080FF1DC08091D80080FF19C0809113
:10254000DA008E7F8093DA008091D90080FF0CC082
:102550008CE089BD8EE089BD09B400FEFDCF81E02D
:10256000809377063FD804C019BC1092770644D8F0
:102570008091E10080FF18C08091E20080FF14C0CC
:102580008091E2008E7F8093E2008091E200806182
:102590008093E2008091D80080628093D80019BCBB
:1025A00085E0809377061CD28091E10084FF2FC0E4
:1025B0008091E20084FF2BC08CE089BD8EE089BD54
:1025C00009B400FEFDCF8091D8008F7D8093D800A4
:1025D0008091E1008F7E8093E1008091E2008F7E08
:1025E0008093E2008091E20081608093E20080911C
:1025F0007306882311F084E007C08091E30087FD13
:1026000002C081E001C083E080937706E9D1809128
:10261000E10083FF27C08091E20083FF23C0809107
:10262000E100877F8093E10082E08093770610923B
:1026300073068091E1008E7F8093E1008091E2003B
:102640008E7F8093E2008091E20080618093E200BF
:1026500042E060E080E026DE8091F00088608093B8
:10266000F000BED1FF91EF91BF91AF919F918F91FB
:102670007F916F915F914F913F912F910F900BBE82
:102680000F900FBE0F901F9018951F920F920FB6CC
:102690000F9211240BB60F922F933F934F935F939A
:1026A0006F937F938F939F93AF93BF93CF93DF935A
:1026B000EF93FF93C091E900CF708091EC00D82F89
:1026C000D17080FDD0E81092E9008091F000877F02
:1026D0008093F000789420D01092E9008091F0006F
:1026E00088608093F000CD2BCF70C093E900FF91FC
:1026F000EF91DF91CF91BF91AF919F918F917F919A
:102700006F915F914F913F912F910F900BBE0F9062
:102710000FBE0F901F9018951F93CF93DF93CDB7E7
:10272000DEB7AA970FB6F894DEBF0FBECDBFE8E7BD
:10273000F6E08091F100819326E0E038F207C9F7D6
:102740000E94240B8091E80083FF32C180917806BB
:1027500090917906953009F483C030F49130A9F155
:1027600068F0933091F124C1983009F4F0C09930A9
:1027700009F4FCC0963009F01BC194C0803821F0E8
:10278000823809F015C108C08091740690917506D1
:10279000992389F082600FC080917C068F7087300A
:1027A00008F006C18093E9008091EB0085FB882743
:1027B00080F91092E9009091E800977F9093E800EB
:1027C0008093F1001092F100CDC0282F2D7F09F0E9
:1027D000EFC0882319F0823061F0EAC080917A0658
:1027E000813009F0E5C0933009F080E080937506F0
:1027F0002EC080917A0681112AC080917C068F704C
:102800002FEF280F263008F0D3C08093E9002091E5
:10281000EB0020FF1CC0933021F48091EB0080621C
:1028200014C09091EB0090619093EB0021E030E0B8
:10283000A90102C0440F551F8A95E2F74093EA00B0
:102840001092EA008091EB0088608093EB00109278
:10285000E9008091E800877F8093E80095DDA8C0BB
:102860008111A6C010917A061F778091E3008078CD
:10287000812B8093E3008091E800877F8093E800BC
:1028800083DD8091E80080FFFCCF8091E3008068C9
:102890008093E300111102C082E001C083E08093C5
:1028A000770686C08058823008F082C080917A0610
:1028B00090917B068C3D53E0950771F583E08A8308
:1028C0008AE289834FB7F894DE01139620E03EE058
:1028D00051E2E32FF0E050935700E49120FF03C052
:1028E000E295EF703F5FEF708E2F90E0EA3010F0CE
:1028F000C79601C0C0968D939D932F5F243149F7F1
:102900004FBF8091E800877F8093E8006AE270E023
:10291000CE010196CEDB15C060917C0670917D06DC
:10292000AE014F5F5F4F0E94C301BC01892B09F4C8
:102930003FC09091E800977F9093E80089819A8149
:1029400052DC8091E8008B778093E80031C08038BA
:1029500079F58091E800877F8093E8008091730685
:102960008093F1008091E8008E7776CF811120C0AE
:1029700080917A0690917B0699270297CCF48091FA
:10298000E800877F8093E80080917A068093730641
:10299000FBDC80917306811106C08091E30087FD06
:1029A00002C081E001C084E0809377060E94060B9C
:1029B0008091E80083FF0AC08091E800877F8093C0
:1029C000E8008091EB0080628093EB00AA960FB63E
:1029D000F894DEBF0FBECDBFDF91CF911F91089558
:1029E0000895CF9380917706882399F0C091E900EC
:1029F000CF709091EC00892F817090FD80E8C82BFA
:102A00001092E9008091E80083FD86DECF70C093CC
:102A1000E900CF910895AA1BBB1B51E107C0AA1F73
:102A2000BB1FA617B70710F0A61BB70B881F991F6F
:102A30005A95A9F780959095BC01CD010895FB01A9
:102A4000DC0104C08D910190801921F44150504067
:102A5000C8F7881B990B0895FB01DC0102C00190A7
:102A60000D9241505040D8F70895DC0101C06D939C
:102A700041505040E0F708950F931F93CF93DF9399
:102A8000CDB7DEB7AE01495F5F4FDA016D917D9141
:102A9000AD0100E816E0F80182819381DC01139614
:102AA0002C911397286013962C933DD0D801129641
:102AB000ED91FC9113972381277F2383DF91CF91A1
:102AC0001F910F9108950F931F93CF93DF93E09180
:102AD0008206F0918306238121FF1BC08C01D0E088
:102AE000C0E0F80181918F016091820670918306A8
:102AF000DB011896ED91FC911997882331F0099527
:102B0000892B79F3DFEFCFEFECCF8AE00995892BA2
:102B100019F08FEF9FEF02C08D2F9C2FDF91CF9187
:102B20001F910F9108952F923F924F925F926F9253
:102B30007F928F929F92AF92BF92CF92DF92EF924D
:102B4000FF920F931F93CF93DF93CDB7DEB72B97F1
:102B50000FB6F894DEBF0FBECDBF6C017B018A01BA
:102B6000FC0117821682838181FFBFC1CE010196CD
:102B70003C01F6019381F70193FD859193FF8191CB
:102B80007F01882309F4ADC1853239F493FD859125
:102B900093FF81917F01853221F4B60190E0D6D177
:102BA000E8CF912C212C312CFFE1F315D8F08B329A
:102BB00079F038F4803279F08332A1F4232D20614A
:102BC0001DC08D3261F0803369F4232D216016C061
:102BD000832D8260382EE32DE4603E2E2AC0F32D33
:102BE000F8601DC037FC2DC020ED280F2A3040F0C2
:102BF0008E32B9F436FC75C1232D2064322E19C0F3
:102C000036FE06C08AE0989E200D1124922E11C037
:102C1000EAE02E9E200D1124222EF32DF0623F2E8D
:102C200008C08C3621F4832D8068382E02C0883687
:102C300041F4F70193FD859193FF81917F0181110B
:102C4000B3CF982F9F7D9554933028F40C5F1F4F7E
:102C50009FE399830DC0833631F0833771F083355C
:102C600009F055C020C0F801808189830E5F1F4F95
:102C700088248394912C530112C02801F2E04F0E56
:102C8000511CF801A080B18036FE03C0692D70E0B0
:102C900002C06FEF7FEFC5014ED14C018201F32DD1
:102CA000FF773F2E15C0280122E0420E511CF8018B
:102CB000A080B18036FE03C0692D70E002C06FEFC6
:102CC0007FEFC5012DD14C01F32DF0683F2E82011D
:102CD00033FC19C0822D90E088169906A0F4B60145
:102CE00080E290E033D12A94F5CFF50137FC85914D
:102CF00037FE81915F01B60190E028D121102A941E
:102D000021E0821A91088114910479F7E1C0843698
:102D100011F0893639F5F80137FE07C060817181FD
:102D2000828193810C5F1F4F08C060817181072EE3
:102D3000000C880B990B0E5F1F4FF32DFF763F2E73
:102D400097FF09C090958095709561957F4F8F4F43
:102D50009F4FF0683F2E2AE030E0A30133D1882E48
:102D6000861844C0853731F4232D2F7EB22E2AE0F9
:102D700030E025C0932D997FB92E8F36C1F018F41D
:102D8000883579F0AEC0803719F0883721F0A9C0B6
:102D9000E92FE061BE2EB4FE0DC0FB2DF460BF2E06
:102DA00009C034FE0AC0292F2660B22E06C028E0D2
:102DB00030E005C020E130E002C020E132E0F8015F
:102DC000B7FE07C060817181828193810C5F1F4FC4
:102DD00006C06081718180E090E00E5F1F4FA3010B
:102DE000F1D0882E8618FB2DFF773F2E36FE0DC0C2
:102DF000232D2E7FA22E891458F434FE0BC032FCF2
:102E000009C0832D8E7EA82E05C0B82CA32C03C02C
:102E1000B82C01C0B92CA4FE0FC0FE01E80DF11DB5
:102E20008081803321F49A2D997EA92E09C0A2FEBB
:102E300006C0B394B39404C08A2D867809F0B39485
:102E4000A3FC10C0A0FE06C0B21480F4280C922C83
:102E50009B180DC0B21458F4B60180E290E076D011
:102E6000B394F8CFB21418F42B1802C0982C212C6C
:102E7000A4FE0FC0B60180E390E068D0A2FE16C0A9
:102E8000A1FC03C088E790E002C088E590E0B601AD
:102E90000CC08A2D867851F0A1FE02C08BE201C0E1
:102EA00080E2A7FC8DE2B60190E050D0891430F4A6
:102EB000B60180E390E04AD09A94F8CF8A94F30167
:102EC000E80DF11D8081B60190E040D08110F6CF71
:102ED000222009F44ECEB60180E290E037D02A9449
:102EE000F7CFF6018681978102C08FEF9FEF2B9677
:102EF0000FB6F894DEBF0FBECDBFDF91CF911F910B
:102F00000F91FF90EF90DF90CF90BF90AF909F9088
:102F10008F907F906F905F904F903F902F9008958B
:102F2000FC010590615070400110D8F78095909594
:102F30008E0F9F1F0895FC01615070400190011099
:102F4000D8F7809590958E0F9F1F08950F931F932C
:102F5000CF93DF93FB01238121FD03C08FEF9FEF10
:102F60002CC022FF16C0468157812481358142172B
:102F7000530744F4A081B1819D012F5F3F4F3183FE
:102F800020838C93268137812F5F3F4F37832683A1
:102F900014C08B01EC01FB010084F185E02D099543
:102FA000892BE1F6D80116968D919C911797019681
:102FB00017969C938E931697CE01DF91CF911F9118
:102FC0000F910895FA01AA27283051F1203181F19B
:102FD000E8946F936E7F6E5F7F4F8F4F9F4FAF4F21
:102FE000B1E03ED0B4E03CD0670F781F891F9A1F34
:102FF000A11D680F791F8A1F911DA11D6A0F711DE8
:10300000811D911DA11D20D009F468943F912AE0F3
:10301000269F11243019305D3193DEF6CF010895DB
:10302000462F4770405D4193B3E00FD0C9F7F6CF0C
:10303000462F4F70405D4A3318F0495D31FD4052D4
:10304000419302D0A9F7EACFB4E0A695979587956A
:1030500077956795BA95C9F7009761057105089549
:103060009B01AC010A2E06945795479537952795F5
:10307000BA95C9F7620F731F841F951FA01D08958D
:04308000F894FFCFF2
:1030840001700000000000000A00000000000000C1
:103094000000000181080000015B06080000000038
:1030A4000000000083400000010440000001010012
:1030B400000000000000000000000000000000000C
:1030C40000000000000000000000000000000000FC
:1030D400000000000000000000000000008000026A
:1030E4001F0000004C55464100000000446174611B
:1030F400666C617368204469736B0000302E303055
:103104000D0A0D0A5365747570206D617373207315
:10311400746F7261676520736420616E64206B65EF
:1031240079626F61726420616461707465642062A5
:1031340079204461766964205265677565726120FF
:1031440047617263696120616B6120447265672025
:1031540068747470733A2F2F6769746875622E638C
:103164006F6D2F44617669642D5265677565726170
:103174002D4761726369612D44726567202D206853
:103184007474703A2F2F7777772E66723333707298
:103194006F6A6563742E6F72670D0A007573696ECA
:1031A4006720666174667320687474703A2F2F65A3
:1031B4006C6D2D6368616E2E6F72672F6673772F47
:1031C40066662F3030696E6465785F652E68746D4D
:0431D4006C0D00007E
:00000001FF
