:10000000A2C10000BFC10000BDC10000BBC1000013
:10001000B9C10000B7C10000B5C10000B3C1000004
:10002000B1C10000AFC100000C94E9140C94B515E7
:10003000A9C10000A7C10000A5C10000A3C1000024
:10004000A1C100000C945C0B9DC100009BC100008D
:1000500099C1000097C1000095C1000093C1000044
:1000600091C100008FC100008DC100008BC1000054
:1000700089C1000087C1000085C1000083C1000064
:1000800081C100007FC100007DC100007BC1000074
:1000900079C1000077C1000048034C0055004600BC
:1000A000410020004D0061007300730020005300E8
:1000B00074006F007200610067006500200061003D
:1000C0006E00640020004B006500790062006F0044
:1000D0006100720064002000440065006D006F0044
:1000E000000018034400650061006E00200043001A
:1000F00061006D00650072006100000004030904E6
:1001000009023900020100803209040000020806D9
:100110005000070583024000050705040240000562
:10012000090401000103010100092111010001225C
:1001300040000705810308000512011001000000BE
:1001400008EB03612001000102DC0105010906A1A1
:1001500001050719E029E7150025017501950881BA
:100160000295017508810105081901290595057594
:10017000019102950175039101150026FF00050705
:10018000190029FF950675088100C05220256C6969
:100190002025690D0A005720256C692025690D0A64
:1001A00000534420626C6F636B733A20256C690DB9
:1001B0000A006469736B5F696E697469616C697A5E
:1001C0006520737563636573730D0A0074727969D2
:1001D0006E67202E2E2E206469736B5F696E6974C2
:1001E00069616C697A650D0A000D0A0D0A00526595
:1001F0006164790D0A00446973636F6E6E656374A0
:100200000D0A00436F6E6E6563740D0A00706F72A5
:100210007465642066726F6D204C5546415F3039BD
:100220003132323320687474703A2F2F7777772EFB
:10023000666F757277616C6C656463756269636C17
:10024000652E636F6D2F4C5546412E706870202DC2
:1002500020626173656420696E204D617468696510
:100260007520536F6E6574206C7566612D736463C1
:100270006172642D6D6173732D73746F7261676544
:100280002D64656D6F20666F72205465656E73799D
:10029000322041544D4547413332553420687474FF
:1002A00070733A2F2F6269746275636B65742E6F79
:1002B00072672F656C617374696373686565702F0D
:1002C0006C7566612D7364636172642D6D61737307
:1002D0002D73746F726167652D64656D6F2F737216
:1002E000632F64656661756C742F207573696E6722
:1002F00020687474703A2F2F7777772E726F6C6145
:100300006E642D72696567656C2E64652F73642D4C
:100310007265616465722F696E6465782E68746DAC
:100320006C204D4D432F53442F5344484320636169
:10033000726420726561646572206C6962726172B8
:10034000790D0A0D0A0011241FBECFEFD0E2DEBFE7
:10035000CDBF12E0A0E0B1E0E2EAF5E300E00BBFC0
:1003600002C007900D92A435B107D9F726E0A4E5A5
:10037000B2E001C01D92A638B207E1F70E94FB0B64
:100380000C94CF1A3DCE292F332723303105C9F0E5
:1003900038F42130310559F02230310569F035C08B
:1003A0002132310541F12232310551F12EC082E175
:1003B00090E029E331E032C089E390E020E031E0D1
:1003C0002DC099278130910551F018F0029769F0FE
:1003D00021C0ECEFF0E0849190E09F011FC0E2EEBD
:1003E000F0E0849190E09F0119C0E8E9F0E0849189
:1003F00090E09F0113C089E090E029E231E00EC057
:1004000080E490E02BE431E009C080E090E020E05F
:1004100030E004C080E090E020E030E0FA01318379
:1004200020830895811102C02FC1089581E00895AD
:100430000F931F93FB01811106C0BA01A901CF01DF
:100440009801E4D101C084E01F910F9108950F93AA
:100450001F93FB01811106C0BA01A901CF019801C8
:100460001FD201C084E01F910F910895811104C033
:10047000862FBA017EC2089584E00895B4C5089518
:100480001CBC22982A9808958EBD0DB407FEFDCF9E
:100490008EB508959C01ADECBCEC0E949F1796951B
:1004A00087959695879596958795809355028FEFBA
:1004B000EBDF8F3F21F0909155029111F8CF21E0B1
:1004C00030E08F3F11F020E030E0C9010895289A14
:1004D0008FEFDACF0895CF93DF9328988FEFD4DF93
:1004E00084EF91E0D7DFEC01892B11F4F0DF02C03B
:1004F000C1E0D0E0CE01DF91CF9108950F931F931B
:10050000CF93DF93082F192FEB0184E180935602DC
:100510008FEFBADF8F3F39F4809156028111F8CF07
:1005200080E090E020C08E3FE1F4E02FF12F8FEFCC
:100530008EBD0DB407FEFDCF9EB5DF0190838EBD4D
:100540000DB407FEFDCF9EB511969C93229732966F
:10055000209771F78FEF98DF8FEF96DF81E090E0C3
:1005600002C080E090E0DF91CF911F910F9108953C
:100570001F93CF93DF93EC01162F84EF91E08ADF76
:10058000009741F1812F80DF1D3F11F1FE019E0197
:100590003E5FDF0190819EBD0DB407FEFDCF119639
:1005A0009C919EBD0DB407FEFDCF3296E217F30776
:1005B00081F78FEF69DF8FEF67DF8FEF65DF8F7177
:1005C00031E020E0853009F030E0832F922F02C027
:1005D00081E090E0DF91CF911F910895FF920F93FA
:1005E0001F93CF93DF93C82FD42F152F062FF72EED
:1005F00088234CF440E050E0BA0187E3EFDF82301B
:1006000008F03CC0CF77CC30F1F061DF64DF892B9C
:10061000C1F08C2F806438DF8F2D36DF802F34DFE0
:10062000812F32DF8D2F30DFCC2329F121C08FEFD6
:100630002BDFCAE08FEF28DF882304F5C150D1F704
:100640001DC08FEF1BC08CE41FDF8F2D1DDF802F9F
:100650001BDF812F19DF8D2F17DF81E015DFCC30F5
:1006600031F3E7CF87E810DFE4CF81E00DDFE1CFA2
:10067000C830C1F3FACF85E907DFDBCFDF91CF9137
:100680001F910F91FF900895CF92DF92EF92FF920A
:100690000F931F93CF93DF9300D000D0CDB7DEB779
:1006A000EFDE8AE080935602809156028111FCCFE2
:1006B0008091000181FF03C0809100019AC087E012
:1006C00085B984B983E58CBD82E58CBD1AE08FEFD6
:1006D000DBDE1150E1F740E050E0BA0180E07EDF60
:1006E000813009F082C084E6809356024AEA51E0E4
:1006F00060E070E088E072DF813009F03DC0CE013B
:1007000001966C017E0195E0E90EF11C86018FEFE8
:10071000BBDEF80181938F01EE16FF06C1F78B81D6
:10072000813009F062C08C818A3A09F05EC0809104
:100730005602882341F040E050E060E070E489EA2E
:100740004DDF8111F4CF80915602882309F44DC00A
:1007500040E050E0BA018AE341DF811146C08FEFEB
:1007600093DEF60181936F01EE16FF06C1F78981D2
:1007700086FD36C084E035C040E050E0BA0189EA29
:100780002DDF823018F001E011E002C002E019EA2A
:1007900080915602882339F040E050E0BA01812F61
:1007A0001DDF8111F5CF809156028823F1F040E0E2
:1007B00052E060E070E080E111DF811116C000932B
:1007C000540285DE002341F0809100018E7F8093EA
:1007D000000181E58CBD01C053DE8091000109C09C
:1007E0008CE08093540273DEEFCF109254026FDEE0
:1007F000F3CF0F900F900F900F90DF91CF911F913B
:100800000F91FF90EF90DF90CF900895FF920F939C
:100810001F93CF93DF938C01E9012097C1F1809161
:10082000000180FD36C08091540283FD09C0032E73
:1008300039E0440F551F661F771F3A95D1F7302DC9
:10084000C230D10528F40F2EF1E1FF2EF02D04C0A7
:100850000F2EF2E1FF2EF02D8F2DC0DE811111C081
:1008600060E072E0C8014ADE892B19F01E5F219713
:10087000B9F782E1F81205C040E050E0BA018CE01F
:10088000ADDE25DE81E0CD2B29F480E003C084E0DD
:1008900001C083E0DF91CF911F910F91FF900895E8
:1008A000CF92DF92EF92FF920F931F93CF93DF933C
:1008B0008C016A017B01E901209709F44CC0809109
:1008C000000180FD4AC08091000182FD48C08091F6
:1008D000540283FD09C00B2EB9E0CC0CDD1CEE1CCC
:1008E000FF1CBA95D1F7B02DC130D10589F4B701FD
:1008F000A60188E173DE811128C06EEFC80138DEE1
:1009000031E020E0892B09F030E0C32FD22F1DC049
:10091000867029F0AE0160E070E087E95FDEB70124
:10092000A60189E15BDE811110C06CEFC80120DEF9
:10093000892B19F01E5F2197C1F76DEF80E090E0E1
:1009400017DE892B11F4C1E0D0E0C1DD81E0CD2BB1
:1009500039F480E005C084E003C083E001C082E098
:10096000DF91CF911F910F91FF90EF90DF90CF908B
:1009700008958F929F92AF92BF92CF92DF92EF92A3
:10098000FF920F931F93CF93DF93CDB7DEB760979E
:100990000FB6F894DEBF0FBECDBF9091000190FD61
:1009A000FFC28B01833309F494C198F4833009F4B6
:1009B000A4C028F4882309F1813031F1F3C28730D3
:1009C00009F4D9C1823309F47EC1843009F0EAC246
:1009D0002DC1863309F4BAC138F4843309F48CC1CB
:1009E000853309F49CC1DEC2883309F435C208F4AA
:1009F000CAC1893309F48FC2D5C26DDD11E0892BDC
:100A000009F010E064DDDBC240E050E0BA0189E0AB
:100A1000E5DD81116DC060E170E0CE0101966EDD13
:100A2000892B09F467C089818295869586958370A4
:100A3000813031F5298530E0322F22278A85280F31
:100A4000311D88858F7390E0A0E0B0E0DC0199272C
:100A500088270196A11DB11D820F931FA11DB11DF5
:100A6000072E7AE0880F991FAA1FBB1F7A95D1F72E
:100A7000702DF80180839183A283B38310E03BC083
:100A800089858295869586958370288590E0F4E027
:100A90002F9F800D911D11249C012F5F3F4F9F813F
:100AA0009370892F90E0982F8827990F990F820FC4
:100AB000931FA0E0B0E03E81432F4F703B85232F72
:100AC000221F2227221F342F320F2A852370220F44
:100AD000230F275004C0880F991FAA1FBB1F2A95F8
:100AE000D2F7F80180839183A283B38310E003C01F
:100AF00011E001C011E0EBDC62C2F0905402F2FEA2
:100B00002FC040E050E0BA018DE868DD811185C05A
:100B10008FEFBADC60E170E0CE010196EFDC892B4B
:100B200009F47DC00F2EF0E3FF2EF02D8FEFACDC2B
:100B3000FA94F110FBCF2B8522952F7080E190E085
:100B4000A0E0B0E004C0880F991FAA1FBB1F2A9520
:100B5000D2F7F80180839183A283B38310E064C04D
:100B600040E050E0BA0189E039DD81115AC060E10E
:100B700070E0CE010196C2DC892B09F454C0F1FE6D
:100B800022C08B858F7390E09C01220F331F8C85D0
:100B9000881F8827881F90E00196820F931F2E855B
:100BA0002295269526952370215002C0880F991F03
:100BB0002A95E2F7A0E0B0E0F80180839183A28358
:100BC000B38310E031C08C85282F237030E0220FD2
:100BD000331F220F331F220F331F82958695877094
:100BE000280F311D2F5F3F4F8B858C7790E09595B7
:100BF0008795959587950196289FA001299F500D6F
:100C0000389F500D1124CA01A0E0B0E0F8018083A4
:100C10009183A283B38310E007C011E005C011E007
:100C200003C011E001C011E052DCC9C1F0905402D0
:100C30008F2D867009F4B8C1BE016F5F7F4F83E3CB
:100C400098DE8111B3C189818295869586958370DE
:100C500019F48B8586FFACC1F80140815181628116
:100C6000738184809580A680B780F3FC12C0032E28
:100C700039E0440F551F661F771F3A95D1F7302D85
:100C8000072E79E0880C991CAA1CBB1C7A95D1F719
:100C9000702D80E2A3DC81118DC1B501A40181E238
:100CA0009DDC811189C140E050E0BA0186E296DC0A
:100CB000811184C180E395E7EDDB11E0892B09F414
:100CC0007EC110E07CC180915402FB01808310E062
:100CD00076C140E050E0BA0189E080DC811109C0B2
:100CE00060E170E0C8010ADC11E0892B19F010E026
:100CF00001C011E0ECDB63C140E050E0BA018AE0E2
:100D00006DDC811109C060E170E0C801F7DB11E022
:100D1000892B19F010E001C011E0D9DB50C140E08F
:100D200050E0BA018AE35ADC81110DC078010C5FF2
:100D30001F4F8FEFA9DBF70181937F010E171F076C
:100D4000C1F710E001C011E0C2DB39C140E050E062
:100D5000BA018DE843DC81110BC08FEF95DB60E4B5
:100D600070E0C801CBDB11E0892B19F010E001C065
:100D700011E0ADDB24C184DB8091000181608093B0
:100D8000000110E01CC1FB01438154816581768123
:100D9000032E39E0440F551F661F771F3A95D1F790
:100DA000302D7068808190E0A0E0B0E0072E7CE1FB
:100DB000880F991FAA1FBB1F7A95D1F7702D482B5A
:100DC000592B6A2B7B2B8181928101979170A0E036
:100DD000B0E0482B592B6A2B7B2B80E3FFDB811182
:100DE00034C084E6809356028FEF4EDB8F3F31F4A0
:100DF000809156028111F8CF11E02CC08E3F39F559
:100E0000F80197818085E180F280E114F104A1F07E
:100E1000C92ED82E8FEF38DBF60181936F01F1E0F8
:100E2000EF1AF108B9F7F8018181928102E012E02E
:100E3000081B190B19F40DC002E012E08FEF24DB40
:100E400001501109D9F710E005C011E003C011E00D
:100E500001C010E03CDBB3C0FB01438154816581DC
:100E60007681032E39E0440F551F661F771F3A9590
:100E7000D1F7302D7068808190E0A0E0B0E0072EBF
:100E80007CE1880F991FAA1FBB1F7A95D1F7702D9F
:100E9000482B592B6A2B7B2B818192810197917072
:100EA000A0E0B0E0482B592B6A2B7B2B81E396DB2B
:100EB00081112EC08FEFE8DA8EEFE6DAF801978124
:100EC0008085E180F280E114F10499F0C92ED82EDA
:100ED000F60181916F01D8DAF1E0EF1AF108C1F75C
:100EE000F8018181928102E012E0081B190B19F4CC
:100EF00007C002E012E08FEFC7DA01501109D9F7FD
:100F00008FEFC2DA8F7111E0853019F410E001C063
:100F100011E0DDDA54C0FB014381548165817681A3
:100F2000032E39E0440F551F661F771F3A95D1F7FE
:100F3000302D7468808190E0A0E0B0E0072E7CE165
:100F4000880F991FAA1FBB1F7A95D1F7702D482BC8
:100F5000592B6A2B7B2B828190E0A0E0B0E0482BDC
:100F6000592B6A2B7B2B81E339DB811116C08FEF64
:100F70008BDA8EEF89DAF801818186DA01E012E0FE
:100F80008FEF82DA01501109D9F78FEF7DDA8F7177
:100F900011E0853019F410E001C011E098DA0FC0BB
:100FA00013E00DC014E00BC011E009C011E007C050
:100FB00011E005C011E003C011E001C011E0812F74
:100FC00060960FB6F894DEBF0FBECDBFDF91CF9114
:100FD0001F910F91FF90EF90DF90CF90BF90AF9057
:100FE0009F908F90089580915602882319F0815028
:100FF0008093560280915502882319F08150809386
:1010000055020895BF92CF92DF92EF92FF920F9315
:101010001F93CF93DF93EC01B62EC8A0DF8CEE8C2C
:10102000FD8C0BA11AA1B4D1C616D706E806F906A5
:1010300068F0E3E0F1E08081807F85608083E1E01B
:10104000F1E081E28487158680E028C0BB2031F082
:101050009801B701A601CE018ED205C09801B70153
:10106000A601CE0117D2C801A0E0B0E0072E79E0BA
:10107000880F991FAA1FBB1F7A95D1F7702D4C8935
:101080005D896E897F898A019B01081B190B2A0BD8
:101090003B0B0C8B1D8B2E8B3F8B81E0DF91CF9117
:1010A0001F910F91FF90EF90DF90CF90BF90089528
:1010B000CF92DF92EF92FF920F931F93CF93DF9324
:1010C000CDB7DEB728970FB6F894DEBF0FBECDBF01
:1010D0008C01FC01838D8D3109F4C4C088F4823108
:1010E00009F138F4882309F401C1833009F459C0A7
:1010F00003C18A3109F4E2C08B3109F4F7C0FCC0A6
:10110000883209F4D7C038F48E3109F4EFC0853243
:1011100009F474C0F1C08A3209F4C8C08F3209F4EE
:10112000E5C0EAC0F801E78CF68C848D837019F471
:10113000858D882361F0E3E0F1E08081807F856028
:101140008083E1E0F1E084E284871586F0C06701E6
:10115000F5E2EF16F10428F00F2EF4E2CF2ED12C99
:10116000F02D40E050E0B6018CE591E00E94ED10DA
:1011700060E070E0C7018C199D09E0D7E8EEF0E06F
:1011800080818E778083F80184899589A689B789C3
:101190008C199D09A109B109848B958BA68BB78BFE
:1011A000B9C0F801F78CEF2CF2E1FF1520F40F2EF7
:1011B000F2E1EF2EF02DCE2CD12C40E050E0B60124
:1011C00081E091E00E94ED108F2D90E060E070E0F2
:1011D0008C199D09B3D7E8EEF0E080818E7780838B
:1011E000F80184899589A689B7898E199109A10981
:1011F000B109848B958BA68BB78B8CC0C9D0DC01D1
:10120000CB010197A109B1098D839E83AF83B88774
:1012100080E092E0A0E0B0E089839A83AB83BC8356
:1012200040E050E064E070E0CE0105960E94491174
:1012300040E050E064E070E0CE0101960E94491168
:10124000E8EEF0E080818E778083F80184899589CB
:10125000A689B7890897A109B109848B958BA68BBC
:10126000B78B58C0F801848D82FD0CC0E3E0F1E03B
:101270008081807F85608083E1E0F1E084E2848783
:10128000158655C017D281110BC0E3E0F1E08081D3
:10129000807F84608083E1E0F1E01486158647C09A
:1012A000F801148A158A168A178A34C060E0C801CA
:1012B000A9DE2EC061E0C801A5DE2AC0E1EFF0E0A2
:1012C0001082108210821082E8EEF0E080818E772A
:1012D0008083F80184899589A689B7890497A10933
:1012E000B109848B958BA68BB78B14C0F801148A37
:1012F000158A168A178A0EC0E3E0F1E08081807FAC
:1013000085608083E1E0F1E080E2848715860FC08C
:10131000882359F0E3E0F1E08081807F8083E1E081
:10132000F1E01486158681E003C080E001C080E012
:1013300028960FB6F894DEBF0FBECDBFDF91CF91D8
:101340001F910F91FF90EF90DF90CF900895CF9372
:10135000DF9389EE91E09F938F930E94CB170F90BC
:101360000F90CCECD1E0DF93CF930E94CB1780E0BD
:1013700059D80F900F908111F6CF82EB91E09F9397
:101380008F930E94CB170F900F90DF91CF9108950C
:10139000CF93DF9300D000D0CDB7DEB719821A8289
:1013A0001B821C82609157067091580680915906E5
:1013B00090915A06611571058105910551F5AE01AF
:1013C0004F5F5F4F61E080E051D889819A812B8126
:1013D0003C8180935706909358062093590630938A
:1013E0005A063F932F939F938F9381EA91E09F93A7
:1013F0008F930E94CB176091570670915806809189
:10140000590690915A060F900F900F900F900F90E1
:101410000F900F900F900F900F90DF91CF91089544
:10142000CF93DF93EC018091E80085FD09C0E8EEE1
:10143000F0E080818B7780830E944714811125C062
:10144000E1EFF0E0808188838081898380818A83D5
:1014500080818B8380818C8380818D8380818E834A
:1014600080818F83808188878081898780818A8736
:1014700080818B8780818C8780818D8780818E871A
:1014800080818F8780E190E002C080E090E0DF9172
:10149000CF9108954F925F926F927F92AF92BF92D9
:1014A000CF92DF92EF92FF920F931F93CF93DF9330
:1014B0005C012A013B016901DF922F937F926F92B9
:1014C0005F924F9386E991E09F938F930E94CB1791
:1014D0000E9447142DB73EB7285F3F4F0FB6F894D0
:1014E0003EBF0FBE2DBF811137C0C114D10411F50D
:1014F0002AC040E050E060E070E0CE0191DF6096ED
:10150000EC16FD06B1F701E010E0A301920167E5DA
:1015100074E080E00E942702F50180AD81111CC0BB
:10152000FFEF4F1A5F0A6F0A7F0A21E0C21AD10843
:1015300039F409C00F2EF7E5EF2EF6E0FF2EF02D5F
:10154000C7E5D4E0D6CF8091E80085FD05C0E8EE80
:10155000F0E080818B778083DF91CF911F910F9195
:10156000FF90EF90DF90CF90BF90AF907F906F9003
:101570005F904F9008954F925F926F927F928F92FB
:101580009F92AF92BF92CF92DF92EF92FF920F9312
:101590001F93CF93DF932A013B0149019F922F9321
:1015A0007F926F925F924F938BE891E09F938F931E
:1015B0000E94CB170E9447142DB73EB7285F3F4FBC
:1015C0000FB6F8943EBF0FBE2DBF811162C08114CB
:1015D000910409F455C00F2EF7E5AF2EF4E0BF2EAD
:1015E000F02D0F2EF8EECF2ED12CF02D0F2EF1EF87
:1015F000EF2EF12CF02D01E010E0A301920167E540
:1016000072E080E00E941802C7E5D2E0F601808116
:1016100085FD07C080818E7780830E9447148111E9
:1016200021C08881F7018083898180838A818083BA
:101630008B8180838C8180838D8180838E81808368
:101640008F81808388858083898580838A85808354
:101650008B8580838C8580838D8580838E85808338
:101660008F8580836096AC16BD0681F6FFEF4F1A1A
:101670005F0A6F0A7F0A21E0821A910809F0BBCF46
:101680008091E80085FD05C0E8EEF0E080818E776E
:101690008083DF91CF911F910F91FF90EF90DF90AA
:1016A000CF90BF90AF909F908F907F906F905F9002
:1016B0004F90089581E008951F920F920FB60F92F8
:1016C00011240BB60F922F933F934F935F936F9319
:1016D0007F938F939F93AF93BF93EF93FF938091EB
:1016E0006306909164060196909364068093630666
:1016F0000E943E02FF91EF91BF91AF919F918F9118
:101700007F916F915F914F913F912F910F900BBE01
:101710000F900FBE0F901F90189584B7877F84BFDE
:101720000FB6F894A895809160008861809360005E
:10173000109260000FBE90E080E80FB6F89480939E
:101740006100909361000FBE8FEF82B985B988B9AF
:101750008BB981BB10928000E1E8F0E010828081BB
:1017600088608083AFE6B0E08C9182608C9380E2E9
:101770009EE49093890080938800808182608083BA
:10178000789483E390E09093CD008093CC0086E042
:101790008093CA001092C80088E18093C900539AD0
:1017A0005A9A80E891E0EED080E090E001D18CE19F
:1017B00092E00E94F2178DE092E09F938F930E9437
:1017C000CB17C5DD8AB1806F8AB98BB18F708BB9A9
:1017D0006A98729A84B18F7184B98DB18F7C8DB9FA
:1017E00085B1806E85B98EB180638EB90E94CD14AB
:1017F0000F900F90089591DF8BB18F7080618BB93E
:10180000789483E291E066D383E191E04CD20E9428
:101810008517F7CF83E092E09F938F930E94CB17B9
:101820008BB18F70806A8BB90F900F90089586EFFF
:1018300091E09F938F930E94CB178BB18F70806143
:101840008BB90F900F900895CF938EEE91E09F93F8
:101850008F930E94CB1783E191E011D2C82F83E2CE
:1018600091E01ED3E2EEF0E09081946090830F90BF
:101870000F90CC2311F0811102C090E901C090E6D5
:101880008BB18F70892B8BB9CF91089583E291E052
:10189000CAD283E191E0A8C008952BB12F702062D5
:1018A0002BB906DC9BB19F7090669BB9089580911F
:1018B000210190912201009729F001979093220134
:1018C0008093210108950F931F93F90183B19CB177
:1018D0009095907396958095807E892B9CB190957C
:1018E000947022E0208388231CF424E0228304C027
:1018F00084FF02C025E0228386FF03C026E0228306
:1019000004C083FF02C027E0228385FF02C088E075
:101910008283992311F089E0828388E090E0F801C6
:101920009183808380E01F910F910895F901908148
:1019300090FF02C080E101C080E091FD806892FDCF
:1019400080649BB19F70892B8BB90895E8ECF0E01F
:10195000908195FFFDCF8093CE0080E090E00895C8
:101960008091C800882344F48091C80088233CF407
:101970008091CE0090E008958EEF9FEF08958FEF55
:101980009FEF0895CF93DF93FC012081222369F01C
:10199000DC011196E8ECF0E0CEECD0E0908195FF10
:1019A000FDCF28832D912111F9CFDF91CF9108959B
:1019B000FC01892B49F4E0E8F6E085E696E09183A6
:1019C000808393838283FC018EE0DF011D928A95E0
:1019D000E9F783E0838386EA9CE09187808780EB48
:1019E0009CE09387828708953F924F925F926F9217
:1019F0007F928F929F92AF92BF92CF92DF92EF929F
:101A0000FF920F931F93CF93DF9300D01F92CDB718
:101A1000DEB76C01EDB6FEB68091E80083FF15C11C
:101A2000F601808190E020917C0630917D06281798
:101A3000390709F00AC180917906833009F4A2C000
:101A400030F4813071F0823009F4E4C0FEC08A3095
:101A500009F4C4C08B3009F4ADC0893009F0F5C079
:101A600053C080917806813A09F0EFC0ADB6BEB69A
:101A70001A821982E8E7F6E0828113818B83F601EE
:101A80008085482F50E08DB79EB7841B950B0FB60D
:101A9000F8949EBF0FBE8DBFEDB7FEB731964F01D4
:101AA00060E070E0CF010E94C4174FEF410F8E013C
:101AB0000F5F1F4F9401BE016D5F7F4FC60103DFB3
:101AC000F60186819781009729F0408550E0B401A6
:101AD0000E94BB171092E900E8EEF0E08081877F5A
:101AE00080838B8181118093F10069817A81C401A7
:101AF0008DD4E8EEF0E080818B7780830FB6F89488
:101B0000BEBE0FBEADBEA1C080917806813209F085
:101B10009CC06DB67EB6E8E7F6E00681178152807C
:101B200043808DB79EB7801B910B0FB6F8949EBF74
:101B30000FBE8DBFEDB7FEB731964F010F2EF8EEF9
:101B4000AF2EB12CF02DF5018081877F8083B80105
:101B5000C401DBD4F50180818E77808321E05110B0
:101B600001C020E030E0021B130B280D391D4FEFA0
:101B7000440D652DC601DADE0FB6F8947EBE0FBEA9
:101B80006DBE63C080917806813A09F05EC0E8EED0
:101B9000F0E08081877F8083808180FFFDCFF60128
:101BA00081858093F100E8EEF0E080818E7780837C
:101BB0004AD64BC080917806813209F046C0E8EEE3
:101BC000F0E08081877F80833ED690917A0681E025
:101BD000911101C080E0F601818737C080917806BD
:101BE000813299F5E8EEF0E08081877F80832BD603
:101BF00080917A0690917B0688270024880F991F90
:101C0000001C880F991F001C892F902DF6019587C5
:101C100084871BC080917806813AB9F4E8EEF0E041
:101C20008081877F8083808180FFFDCFF60184855E
:101C3000958596958795969587958093F100E8EE22
:101C4000F0E080818E778083FED50FB6F894FEBEDB
:101C50000FBEEDBE0F900F900F90DF91CF911F91AF
:101C60000F91FF90EF90DF90CF90BF90AF909F903B
:101C70008F907F906F905F904F903F900895FC0100
:101C8000399627E0DF011D922A95E9F721E0FC0152
:101C9000218724EF31E03587248723E0248361E026
:101CA000019682C508955F926F927F928F929F9264
:101CB000AF92BF92CF92DF92EF92FF920F931F935A
:101CC000CF93DF9300D01F92CDB7DEB77C01ADB6C6
:101CD000BEB680917706843009F08DC08091E40013
:101CE0009091E500F701228533852817390709F41B
:101CF00082C081818F708093E9008091E80085FF28
:101D00007AC08DB69EB6408550E08DB79EB7841BD5
:101D1000950B0FB6F8949EBF0FBE8DBFEDB7FEB703
:101D200031966F011B821A82198260E070E0CF0148
:101D30000E94C4178E010F5F1F4F960140E0BE0145
:101D40006D5F7F4FC701BFDD582EF70184859585F4
:101D5000892B41F081E026853785232B09F080E02F
:101D6000782E01C0712CF70106811781011511052C
:101D700099F049815A81B801C6010E94AE176624C4
:101D80006394892B09F4612CF701408550E0B6017A
:101D9000C8010E94BB1701C0612C89819A81892BDF
:101DA000F1F0511004C0611002C070FE18C0F701BC
:101DB000848595859787868781818F708093E900D8
:101DC0008B8181118093F10069817A8140E050E03C
:101DD000C60103D2E8EEF0E080818E7780838091A7
:101DE000E4009091E500F701938782870FB6F8949D
:101DF0009EBE0FBE8DBE0FB6F894BEBE0FBEADBE6A
:101E00000F900F900F90DF91CF911F910F91FF9046
:101E1000EF90DF90CF90BF90AF909F908F907F908A
:101E20006F905F900895CF93DF93FC019091E8004D
:101E300093FF33C0208130E080917C0690917D0635
:101E40008217930751F5EF01809179068E3F79F063
:101E50008F3F19F5809178068132F9F4E8EEF0E0D1
:101E60008081877F8083EFD481E088AF16C0809126
:101E70007806813A91F4E8EEF0E08081877F8083F4
:101E8000808180FFFDCF8B8581508093F100E8EE4B
:101E9000F0E080818E778083D6D4DF91CF91089552
:101EA000CF93DF93EC01FC013C968DE2DF011D92A4
:101EB0008A95E9F782E08C83898761E0CE010196FB
:101EC00073D4882321F061E0CE0106966DD4DF91B2
:101ED000CF910895EF92FF920F931F93CF93DF93CB
:101EE00000D0CDB7DEB78C0190917706943009F021
:101EF0001CC1D80116968C9116978F708093E900BB
:101F00008091E80082FFD2C016968C918F708093EA
:101F1000E9001A8219827801BCE0EB0EF11C04C0C2
:101F2000F80180AD8111C2C0AE014F5F5F4F6FE01D
:101F300070E0C7010FD2853099F3F801848595854B
:101F4000A685B78585359345A244B34499F4D80155
:101F500059969C9159971B968C911B97981750F402
:101F600058968C9158978F7129F45A968C9181507C
:101F7000803178F0EBEEF0E0808180628083D801E0
:101F800011968C918F708093E900808180628083AC
:101F90008DC01A8219827801BBE1EB0EF11C04C0DE
:101FA000F80180AD811182C0D8015A966C9170E021
:101FB000AE014F5F5F4FC701CDD1853089F3E8EEA9
:101FC000F0E080818B778083F801808D882324F472
:101FD00081818F708093E900C8015FDC91E09827D0
:101FE000D801D7969C93D79745E553E562E473E50E
:101FF000F80143A754A765A776A74089518962894C
:1020000073899F964D935D936D937C93D29754966D
:102010004D915D916D917C91579743AB54AB65ABFE
:1020200076AB811109C0452B462B472B29F0EBEEEF
:10203000F0E0808180628083D80116968C918F7049
:102040008093E900EBEEF0E005C0D801D8968C91C2
:1020500081112CC0808185FDF8CFF80181818F70BE
:102060008093E900EBEEF0E005C0D801D8968C91A2
:1020700081111CC0808185FDF8CF1A8219827801F8
:10208000BBE2EB0EF11C04C0F80180AD81110EC063
:10209000AE014F5F5F4F6DE070E0C7019ED08530AD
:1020A00099F3E8EEF0E080818E778083D801D896AE
:1020B0008C91D8978823C9F116962C9116972F707A
:1020C00081E090E0FC0102C0EE0FFF1F2A95E2F7CD
:1020D0009F01EAEEF0E02083108211962C91119777
:1020E0002F7002C0880F991F2A95E2F78083108213
:1020F00016968C918F7029EE30E0D9018C93EBEE1F
:10210000F0E0808180618083808188608083D80155
:1021100011968C918F70D9018C938081806180831E
:10212000808188608083F80110AE0F900F90DF915E
:10213000CF911F910F91FF90EF900895AF92BF92B2
:10214000CF92DF92EF92FF920F931F93CF93DF9383
:10215000EC016B019CD3811135C0C114D10429F06D
:10216000F60180819181C81BD90B209751F1E12C98
:10217000F12C08EE10E00F2EF1EFAF2EB12CF02D68
:10218000F801808185FD13C080818E778083C11422
:10219000D10449F0F60180819181E80EF91EF182A7
:1021A000E08285E00FC073D3882339F00BC0F501BE
:1021B00010822197FFEFEF1AFF0A209709F780E0BE
:1021C00001C080E0DF91CF911F910F91FF90EF90C0
:1021D000DF90CF90BF90AF9008958F929F92AF9273
:1021E000BF92CF92DF92EF92FF920F931F93CF9304
:1021F000DF938C01EB016A014AD381113DC0C11408
:10220000D10439F0F60180819181C81BD90B080FE8
:10221000191F209781F1E12CF12C0F2EF8EE8F2E53
:10222000912CF02D0F2EF1EFAF2EB12CF02DF401EB
:10223000808185FD13C080818E778083C114D10495
:1022400049F0F60180819181E80EF91EF182E08269
:1022500085E012C01CD3882351F00EC0F801819193
:102260008F01F50180832197FFEFEF1AFF0A209776
:10227000F1F680E001C080E0DF91CF911F910F91D6
:10228000FF90EF90DF90CF90BF90AF909F908F9096
:1022900008958F929F92AF92BF92CF92DF92EF926A
:1022A000FF920F931F93CF93DF938C01EB016A0191
:1022B000EED2811142C04E0181E0881A9108800E51
:1022C000911EC114D10439F0F60180819181C81B9F
:1022D000D90B881A990A209779F1E12CF12C08EE94
:1022E00010E00F2EF1EFAF2EB12CF02DF801808110
:1022F00085FD13C080818E778083C114D10449F09D
:10230000F60180819181E80EF91EF182E08285E07C
:1023100014C0BDD2882361F010C0F4018081F501A2
:102320008083F1E08F1A910821978FEFE81AF80A5D
:102330002097E1F680E001C080E0DF91CF911F910E
:102340000F91FF90EF90DF90CF90BF90AF909F9054
:102350008F9008958F929F92AF92BF92CF92DF920B
:10236000EF92FF920F931F93CF93DF938C01EB01BA
:102370006A018DD281113DC0C114D10439F0F6013A
:1023800080819181C81BD90B080F191F209781F1FB
:10239000E12CF12C0F2EF8EE8F2E912CF02D0F2E1C
:1023A000F1EFAF2EB12CF02DF401808185FD13C02B
:1023B00080818B778083C114D10449F0F60180813C
:1023C0009181E80EF91EF182E08285E012C05FD2B1
:1023D000882351F00EC0F5018081F80181938F01AF
:1023E0002197FFEFEF1AFF0A2097F1F680E001C076
:1023F00080E0DF91CF911F910F91FF90EF90DF90E0
:10240000CF90BF90AF909F908F900895EF92FF92E2
:102410000F931F93CF93DF9320917E0630917F0619
:102420002617370758F06115710539F4E8EEF0E02A
:1024300020812E7720839B0101C09B01A82FB92FFB
:1024400090E0E8EEF0E062EF70E00F2EF1EFEF2E9B
:10245000F12CF02D11E000E02FC080917706882349
:1024600009F441C0853009F440C0808183FD3FC03C
:10247000808182FD31C0808180FF1EC0EB014881D8
:1024800059812115310581F04830510568F48D914D
:10249000E7018883215031094F5F5F4F21153105D6
:1024A00019F04830510599F7912F4830510509F03E
:1024B000902F80818E7780832115310571F69111DF
:1024C000CCCF0AC080917706882399F0853099F0A7
:1024D000808183FF03C011C0E8EEF0E0808182FFBD
:1024E000F1CF80E00BC082E009C083E007C081E04B
:1024F00005C082E003C083E001C081E0DF91CF919D
:102500001F910F91FF90EF900895CF93DF93611586
:10251000710539F5E8EEF0E080818B7780833DC06E
:1025200080917706882309F43FC0853009F43EC0C6
:10253000808183FD3DC0808182FFF2CF45C0E901EB
:1025400088818D936150710929F0EA018881998110
:10255000892BA9F780818B7780836115710549F4F8
:102560001CC0A82FB92FE8EEF0E042EF50E021EFB9
:1025700030E0809177068823E9F08530E9F08081AA
:1025800083FD1CC0808182FD1FC0CACF8091770669
:102590008823B1F0853019F415C0E8EEF0E08081B1
:1025A00080FFF4CF80E017C082E015C083E013C045
:1025B00081E011C082E00FC083E00DC081E00BC05C
:1025C00082E009C083E007C0EA0188819981892BF4
:1025D00009F0B5CFBFCFDF91CF910895EF92FF9271
:1025E0000F931F93CF93DF9320917E0630917F0648
:1025F0002617370758F06115710539F4E8EEF0E059
:1026000020812E7720839B0101C09B01E82FF92FA9
:1026100090E0A8EEB0E062EF70E00F2EF1EFEF2E49
:10262000F12CF02D11E000E030C080917706882376
:1026300009F442C0853009F441C08C9183FD40C04B
:102640008C9182FD32C08C9180FF1FC0EB014881CC
:1026500059812115310589F04830510570F4849174
:10266000E70188833196215031094F5F5F4F211573
:10267000310519F04830510591F7912F4830510537
:1026800009F0902F8C918E778C932115310569F686
:102690009111CBCF0AC080917706882399F08530BD
:1026A00099F0808183FF03C011C0E8EEF0E08081E3
:1026B00082FFF1CF80E00BC082E009C083E007C059
:1026C00081E005C082E003C083E001C081E0DF91CA
:1026D000CF911F910F91FF90EF9008958F929F924D
:1026E000BF92CF92DF92EF92FF920F931F93CF93FF
:1026F000DF93873070F126C0292F2F70E7012883E0
:10270000891731F0E80178812081E401588103C004
:10271000242F762F5B2D21FF12C03C913E7F3C93EE
:1027200030813D7F30833C9131603C93E801788378
:102730002083E4015883E6012881222344F49F5F2B
:102740009730D1F68F708093E90081E021C080E05E
:102750001FC0982F9F709093E900982F242F762FF9
:1027600050E0ABEEB0E0EDEEF0E00CEE10E00F2E3E
:10277000F0EF8F2E912CF02D0F2EFEEECF2ED12CC0
:10278000F02D0F2EF9EEEF2EF12CF02DB12CC3CF42
:10279000DF91CF911F910F91FF90EF90DF90CF903D
:1027A000BF909F908F900895EF92FF920F931F9389
:1027B000CF93DF936623E9F1062FC82FD92F10E0BE
:1027C0000F2EF6E0FF2EF02D6894EE24E1F85881EC
:1027D000552349F19C81E981FA816B81852F8F70A6
:1027E000873048F5923010F44E2D01C04F2DE9305E
:1027F000F10550F028E030E090E09F5F220F331F9A
:102800002E173F07D0F301C090E09295907F492B9F
:1028100090E4699FB0011124551F5527551F652B62
:102820005DDF882349F01F5F25960113D0CF81E03B
:1028300003C081E001C080E0DF91CF911F910F9133
:10284000FF90EF90089580917806882344F0E8EE99
:10285000F0E014C080917706811103C00895E8EE7E
:10286000F0E0808182FFF6CFE8EEF0E080818B77A8
:102870008083089580917706882341F0808180FFCE
:10288000F9CFE8EEF0E080818E77808308950F9392
:102890001F93CF93DF932091E4003091E50065E62C
:1028A000ACEEB0E0E8EEF0E00BEE10E044EE50E00D
:1028B00001C09C019C91892F817090FD1DC020C09A
:1028C00080917706882381F0853081F0E801888146
:1028D00085FD0EC0EA01888199812817390751F3D7
:1028E000615039F784E00FC082E00DC083E00BC077
:1028F00081E009C080E007C0808180FFE1CFFACF8E
:10290000908192FFDDCFDF91CF911F910F910895BC
:102910000F931F93CF93DF934FD056D0C8EDD0E0E5
:1029200088818F77888388818068888388818F7D7C
:102930008883E7EDF0E080818068808319BC109285
:10294000770610927306109275061092740600EEC8
:1029500010E0F80180818B7F80838881816088838B
:1029600042E060E080E0BADEE1EEF0E080818E7F60
:102970008083E2EEF0E080818160808380818860E6
:102980008083F80180818E7F808388818061888345
:10299000DF91CF911F910F910895E8EDF0E08081D4
:1029A0008F7E8083E7EDF0E080818160808381E02D
:1029B00080937606ADCF0895E8EDF0E080818C7FBE
:1029C00080831092E20008951092DA001092E100E4
:1029D00008951F920F920FB60F9211240BB60F920B
:1029E0002F933F934F935F936F937F938F939F9317
:1029F000AF93BF93EF93FF938091E10082FF0BC0F1
:102A00008091E20082FF07C0E1EEF0E080818B7FE1
:102A100080830E94570C8091DA0080FF1FC0809154
:102A2000D80080FF1BC0EAEDF0E080818E7F8083BC
:102A30008091D90080FF0DC08CE089BD8EE089BDFA
:102A400009B400FEFDCF81E0809377060E940A0C56
:102A500005C019BC109277060E94170C8091E10006
:102A600080FF16C08091E20080FF12C0E2EEF0E02D
:102A700080818E7F8083808180618083E8EDF0E0BB
:102A800080818062808319BC85E0809377063CD288
:102A90008091E10084FF2FC08091E20084FF2BC071
:102AA0008CE089BD8EE089BD09B400FEFDCFE8ED64
:102AB000F0E080818F7D8083E1EEF0E080818F7E89
:102AC0008083E2EEF0E080818F7E80838081816070
:102AD000808380917306882321F084E080937706B9
:102AE00009C08091E300882314F081E001C083E0F5
:102AF0008093770609D28091E10083FF23C0809103
:102B0000E20083FF1FC0E1EEF0E08081877F8083D9
:102B100082E0809377061092730680818E7F808397
:102B2000E2EEF0E080818E7F80838081806180830F
:102B300042E060E080E0D2DDE0EFF0E0808188609C
:102B40008083E2D1FF91EF91BF91AF919F918F91DF
:102B50007F916F915F914F913F912F910F900BBE9D
:102B60000F900FBE0F901F9018951F920F920FB6E7
:102B70000F9211240BB60F92EF92FF920F931F93B7
:102B80002F933F934F935F936F937F938F939F9375
:102B9000AF93BF93CF93DF93EF93FF93C091E9007F
:102BA000CF708091EC00D82FD17080FDD0E80F2E2F
:102BB000F9EEEF2EF12CF02DF701108200EF10E06E
:102BC000F8018081877F8083789423D0F701108279
:102BD000F801808188608083CD2BCF70F701C0839E
:102BE000FF91EF91DF91CF91BF91AF919F918F9125
:102BF0007F916F915F914F913F912F911F910F9115
:102C0000FF90EF900F900BBE0F900FBE0F901F9094
:102C100018950F931F93CF93DF93CDB7DEB7AA9785
:102C20000FB6F894DEBF0FBECDBFE8E7F6E020E8B0
:102C300036E0A1EFB0E08C9181932E173F07D9F7D2
:102C40000E94460C8091E80083FF39C1E8E7F6E076
:102C500090818181853009F47FC030F48130C9F1E1
:102C600068F08330B1F12BC1883009F4F2C08930AB
:102C700009F4FFC0863009F022C191C0903821F0DC
:102C8000923809F01CC108C08091740690917506B5
:102C9000992389F082600FC080917C068F70873005
:102CA00008F00DC1E9EEF0E080838091EB0085FB38
:102CB000882780F91082E8EEF0E09081977F90837A
:102CC000A1EFB0E08C931C9280818E778083BBDD76
:102CD000F6C0992309F402C1923009F0F0C003C193
:102CE00091E0833009F090E0909375062CC08091BC
:102CF0007C068F709FEF980F963008F0E0C08093AD
:102D0000E9009091EB0090FF1EC0909179069330FE
:102D100031F4EBEEF0E080818062808314C0EBEE52
:102D2000F0E090819061908321E030E0A90102C041
:102D3000440F551F8A95E2F7AAEEB0E04C931C921F
:102D40008081886080831092E900E8EEF0E0808165
:102D5000877F808378DDB3C09111B1C010917A066E
:102D60001F77E3EEF0E080818078812B8083E8EEAE
:102D7000F0E08081877F808366DDE8EEF0E080818F
:102D800080FFFDCFE3EEF0E0808180688083111149
:102D900002C082E001C083E08093770690C0905823
:102DA000923008F08CC080917A0690917B068C3D21
:102DB00053E0950799F583E08A838AE289835FB7B8
:102DC000F894DE01139620E03EE041E2E32FF0E0CC
:102DD00040935700849120FF03C082958F703F5F1E
:102DE0008F708A3018F090E0C79602C090E0C096CD
:102DF0008D939D932F5F243149F75FBF08EE10E05C
:102E0000F8018081877F80836AE270E0CE010196BD
:102E1000FDDAF80180818B77808351C060917C0658
:102E200070917D06AE014F5F5F4F0E94C301BC01F0
:102E3000892B09F444C008EE10E0F8019081977FD7
:102E4000908389819A81CADBF80180818B778083A6
:102E500036C09038A1F5E8EEF0E08081877F80836E
:102E6000809173068093F10080818E778083EBDC04
:102E700026C0911124C080917A0690917B069927F3
:102E80000297ECF4E8EEF0E08081877F8083809108
:102E90007A0680937306D7DC80917306882321F02D
:102EA00084E08093770609C08091E300882314F0C2
:102EB00081E001C084E0809377060E94240C809119
:102EC000E80083FF16C0E8EEF0E08081877F808312
:102ED000EBEEF0E08081806280830BC090917A06F7
:102EE000913069F7FDCE80917A06882309F4FFCEF0
:102EF0002ACFAA960FB6F894DEBF0FBECDBFDF91E2
:102F0000CF911F910F9108950895CF9380917706E7
:102F1000882399F0C091E900CF708091EC00982F40
:102F2000917080FD90E8C92B1092E9008091E80033
:102F300083FD6FDECF70C093E900CF910895A29F0B
:102F4000B001B39FC001A39F700D811D1124911D7D
:102F5000B29F700D811D1124911D0895FB01DC01AC
:102F600004C08D910190801921F441505040C8F760
:102F7000881B990B0895FB01DC0102C001900D92A2
:102F800041505040D8F70895DC0101C06D93415085
:102F90005040E0F708950F931F93CF93DF93CDB781
:102FA000DEB7AE01495F5F4FDA016D917D91AD01F2
:102FB00000E816E0F80182819381DC0113962C91E0
:102FC0001397286013962C933DD0D8011296ED915B
:102FD000FC9113972381277F2383DF91CF911F914A
:102FE0000F9108950F931F93CF93DF93E091820683
:102FF000F0918306238121FF1BC08C01D0E0C0E04B
:10300000F80181918F016091820670918306DB0146
:103010001896ED91FC911997882331F00995892B29
:1030200079F3DFEFCFEFECCF8AE00995892B19F028
:103030008FEF9FEF02C08D2F9C2FDF91CF911F91BB
:103040000F9108952F923F924F925F926F927F92CD
:103050008F929F92AF92BF92CF92DF92EF92FF92A8
:103060000F931F93CF93DF93CDB7DEB72B970FB698
:10307000F894DEBF0FBECDBF6C017B018A01FC015D
:1030800017821682838181FFBFC1CE0101963C0168
:10309000F6019381F70193FD859193FF81917F0163
:1030A000882309F4ADC1853239F493FD859193FFEE
:1030B00081917F01853221F4B60190E0D6D1E8CF2D
:1030C000912C212C312CFFE1F315D8F08B3279F0C3
:1030D00038F4803279F08332A1F4232D20611DC0B1
:1030E0008D3261F0803369F4232D216016C0832D69
:1030F0008260382EE32DE4603E2E2AC0F32DF86066
:103100001DC037FC2DC020ED280F2A3040F08E3234
:10311000B9F436FC75C1232D2064322E19C036FE59
:1031200006C08AE0989E200D1124922E11C0EAE07C
:103130002E9E200D1124222EF32DF0623F2E08C06A
:103140008C3621F4832D8068382E02C0883641F4F5
:10315000F70193FD859193FF81917F018111B3CF99
:10316000982F9F7D9554933028F40C5F1F4F9FE359
:1031700099830DC0833631F0833771F0833509F0C0
:1031800055C020C0F801808189830E5F1F4F8824BD
:103190008394912C530112C02801F2E04F0E511C70
:1031A000F801A080B18036FE03C0692D70E002C036
:1031B0006FEF7FEFC5014ED14C018201F32DFF77F8
:1031C0003F2E15C0280122E0420E511CF801A080BC
:1031D000B18036FE03C0692D70E002C06FEF7FEF53
:1031E000C5012DD14C01F32DF0683F2E820133FC37
:1031F00019C0822D90E088169906A0F4B60180E2ED
:1032000090E033D12A94F5CFF50137FC859137FE54
:1032100081915F01B60190E028D121102A9421E02C
:10322000821A91088114910479F7E1C0843611F073
:10323000893639F5F80137FE07C0608171818281D6
:1032400093810C5F1F4F08C060817181072E000CB5
:10325000880B990B0E5F1F4FF32DFF763F2E97FFC4
:1032600009C090958095709561957F4F8F4F9F4FC6
:10327000F0683F2E2AE030E0A30133D1882E861873
:1032800044C0853731F4232D2F7EB22E2AE030E062
:1032900025C0932D997FB92E8F36C1F018F488354B
:1032A00079F0AEC0803719F0883721F0A9C0E92F36
:1032B000E061BE2EB4FE0DC0FB2DF460BF2E09C030
:1032C00034FE0AC0292F2660B22E06C028E030E066
:1032D00005C020E130E002C020E132E0F801B7FE95
:1032E00007C060817181828193810C5F1F4F06C08E
:1032F0006081718180E090E00E5F1F4FA301F1D0EB
:10330000882E8618FB2DFF773F2E36FE0DC0232D0D
:103310002E7FA22E891458F434FE0BC032FC09C053
:10332000832D8E7EA82E05C0B82CA32C03C0B82CEC
:1033300001C0B92CA4FE0FC0FE01E80DF11D808173
:10334000803321F49A2D997EA92E09C0A2FE06C0D1
:10335000B394B39404C08A2D867809F0B394A3FC87
:1033600010C0A0FE06C0B21480F4280C922C9B184A
:103370000DC0B21458F4B60180E290E076D0B39458
:10338000F8CFB21418F42B1802C0982C212CA4FEEC
:103390000FC0B60180E390E068D0A2FE16C0A1FC89
:1033A00003C088E790E002C088E590E0B6010CC059
:1033B0008A2D867851F0A1FE02C08BE201C080E226
:1033C000A7FC8DE2B60190E050D0891430F4B6012C
:1033D00080E390E04AD09A94F8CF8A94F301E80D04
:1033E000F11D8081B60190E040D08110F6CF2220FF
:1033F00009F44ECEB60180E290E037D02A94F7CFA0
:10340000F6018681978102C08FEF9FEF2B960FB652
:10341000F894DEBF0FBECDBFDF91CF911F910F910A
:10342000FF90EF90DF90CF90BF90AF909F908F90E4
:103430007F906F905F904F903F902F900895FC0188
:103440000590615070400110D8F7809590958E0FCF
:103450009F1F0895FC016150704001900110D8F742
:10346000809590958E0F9F1F08950F931F93CF9374
:10347000DF93FB01238121FD03C08FEF9FEF2CC061
:1034800022FF16C046815781248135814217530798
:1034900044F4A081B1819D012F5F3F4F3183208390
:1034A0008C93268137812F5F3F4F3783268314C04B
:1034B0008B01EC01FB010084F185E02D0995892B3E
:1034C000E1F6D80116968D919C9117970196179663
:1034D0009C938E931697CE01DF91CF911F910F9100
:1034E0000895FA01AA27283051F1203181F1E8949A
:1034F0006F936E7F6E5F7F4F8F4F9F4FAF4FB1E0E7
:103500003ED0B4E03CD0670F781F891F9A1FA11DE1
:10351000680F791F8A1F911DA11D6A0F711D811DE2
:10352000911DA11D20D009F468943F912AE0269FA7
:1035300011243019305D3193DEF6CF010895462F06
:103540004770405D4193B3E00FD0C9F7F6CF462FE7
:103550004F70405D4A3318F0495D31FD4052419350
:1035600002D0A9F7EACFB4E0A6959795879577950D
:103570006795BA95C9F700976105710508959B0194
:10358000AC010A2E06945795479537952795BA951D
:10359000C9F7620F731F841F951FA01D0895F8942B
:0235A000FFCF5B
:1035A20001700000000000000A000000000000009E
:1035B2000000000181080000015B06080000000015
:1035C20000000000834000000104400000010100EF
:1035D20000000000000000000000000000000000E9
:1035E20000000000000000000000000000000000D9
:1035F2000000000000000000000000000080000247
:103602001F0000004C5546410000000044617461F7
:10361200666C617368204469736B0000302E303031
:103622000D0A0D0A5365747570206D6173732073F2
:10363200746F7261676520736420616E64206B65CC
:1036420079626F6172642061646170746564206282
:1036520079204461766964205265677565726120DC
:1036620047617263696120616B6120447265672002
:1036720068747470733A2F2F6769746875622E6369
:103682006F6D2F44617669642D526567756572614D
:103692002D4761726369612D44726567202D206830
:1036A2007474703A2F2F7777772E66723333707275
:1036B2006F6A6563742E6F72670D0A007573696EA7
:1036C2006720666174667320687474703A2F2F6580
:1036D2006C6D2D6368616E2E6F72672F6673772F24
:1036E20066662F3030696E6465785F652E68746D2A
:0436F2006C0D00005B
:00000001FF
