:10000000A2C10000BEC10000BCC10000BAC1000016
:10001000B8C10000B6C10000B4C10000B2C1000008
:10002000B0C10000AEC100000C94F40F0C94B50FE9
:10003000A8C10000A6C10000A4C10000A2C1000028
:10004000A0C10000BAC200009CC100009AC100001B
:1000500098C1000096C1000094C1000092C1000048
:1000600090C100008EC100008CC100008AC1000058
:1000700088C1000086C1000084C1000082C1000068
:1000800080C100007EC100007CC100007AC1000078
:1000900078C1000076C1000052656164790D0A00E4
:1000A000446973636F6E6E6563740D0A00436F6E0F
:1000B0006E6563740D0A00706F72746564206672F9
:1000C0006F6D204C5546415F3039313232332068F4
:1000D0007474703A2F2F7777772E666F7572776109
:1000E0006C6C656463756269636C652E636F6D2FFC
:1000F0004C5546412E706870202D206261736564F6
:1001000020696E204D61746869657520536F6E6556
:1001100074206C7566612D7364636172642D6D610A
:1001200073732D73746F726167652D64656D6F20D5
:10013000666F72205465656E7379322041544D4567
:100140004741333255342068747470733A2F2F62EC
:1001500069746275636B65742E6F72672F656C616D
:100160007374696373686565702F6C7566612D7350
:1001700064636172642D6D6173732D73746F72614A
:1001800067652D64656D6F2F7372632F646566619B
:10019000756C742F207573696E6720687474703A7B
:1001A0002F2F7777772E726F6C616E642D72696571
:1001B00067656C2E64652F73642D7265616465726A
:1001C0002F696E6465782E68746D6C204D4D432FD9
:1001D00053442F5344484320636172642072656125
:1001E000646572206C6962726172790D0A0D0A0091
:1001F00005010906A101050719E029E715002501F8
:10020000750195088102950175088101050819019C
:100210002905950575019102950175039101150058
:1002200026FF000507190029FF950675088100C003
:100230001201100100000008EB036120010001021F
:10024000DC010902390002010080320904000002C9
:100250000806500007058302400005070504024018
:100260000005090401000103010100092111010039
:100270000122400007058103080005040309041852
:10028000034400650061006E002000430061006DC2
:1002900000650072006100000048034C00550046F4
:1002A00000410020004D00610073007300200053E6
:1002B0000074006F0072006100670065002000613B
:1002C000006E00640020004B006500790062006F42
:1002D000006100720064002000440065006D006F42
:1002E0000000005220256C692025690D0A00572066
:1002F000256C692025690D0A00534420626C6F63E8
:100300006B733A20256C690D0A006469736B5F6931
:100310006E697469616C697A65207375636365736E
:10032000730D0A00747279696E67202E2E2E206478
:1003300069736B5F696E697469616C697A650D0ACE
:10034000000D0A0D0A0011241FBECFEFD0E2DEBF60
:10035000CDBF12E0A0E0B1E0E2E6F2E300E00BBFC7
:1003600002C007900D92A435B107D9F716E0A4E5B5
:10037000B2E001C01D92A638B107E1F74ED10C944E
:100380002F193ECE80911A0290911B02009729F0FE
:10039000019790931B0280931A0208950F931F9365
:1003A000D801F90123B18CB1809590E080739070F1
:1003B000959587952095207E282B3CB182E08083FF
:1003C00027FF02C084E003C024FF02C085E08283CF
:1003D000922F26FF02C086E003C023FF02C087E001
:1003E000828395FF02C088E0828332FD02C089E0EB
:1003F000828388E090E08D939C9380E01F910F9121
:100400000895F901808190E080FD90E181FD906880
:1004100082FD90648BB18F70982B9BB908952BB19E
:100420002F7020622BB90E94D90A9BB19F709066F1
:100430009BB9089583ED91E00E94D1158CE092E084
:100440000C943F1300D080EA90E0EDB7FEB79283A2
:1004500081830E943F168BB18F7080618BB90F90A2
:100460000F90089500D08DEA90E0EDB7FEB792832B
:1004700081830E943F168BB18F70806A8BB90F9079
:100480000F9008950F931F9300D088E990E0EDB787
:10049000FEB7928381830E943F160F900F908CE0ED
:1004A00092E00E941E13082F83ED91E00E94B51583
:1004B0009091E20094609093E20010E090E00823B5
:1004C000192300FF02C090E601C090E98BB18F7044
:1004D000982B9BB91F910F91089584B7877F84BF94
:1004E00088E10FB6F89480936000109260000FBE10
:1004F00080E090E020E80FB6F894209361008093AC
:1005000061000FBE8FEF82B985B988B98BB981BB05
:1005100010928000A1E8B0E01C928C9188608C93CE
:10052000EFE6F0E080818260808380E29EE4909339
:100530008900809388008C9182608C93789483E307
:1005400090E09093CD008093CC0086E08093CA0029
:100550001092C80088E18093C900539A5A9A80E0AB
:1005600091E00E94200C80E090E00E942D0C8CE92C
:1005700091E00E94611600D087EB90E0EDB7FEB7E6
:10058000928381830E943F160F900F9044D28AB1CC
:10059000806F8AB98BB18F708BB96A98729A84B167
:1005A0008F7184B98DB18F7C8DB985B1806E85B91D
:1005B0008EB180638EB90C949A0F1F920F920FB672
:1005C0000F920BB60F9211242F933F934F935F938B
:1005D0006F937F938F939F93AF93BF93EF93FF930B
:1005E00080916306909164060196909364068093CF
:1005F00063063BD2FF91EF91BF91AF919F918F9195
:100600007F916F915F914F913F912F910F900BBE12
:100610000F900FBE0F901F9018955FDF8BB18F70FA
:1006200080618BB9789483ED91E00E9489148CE00D
:1006300092E00E944F120E943A12F5CFDA019330F5
:10064000B1F0943028F4913041F0923079F50AC03D
:10065000913211F1923251F524C0E0E3F2E022E14F
:1006600030E028C0E2E4F2E029E330E023C081304A
:1006700049F0813018F08230C9F40AC0EBE7F2E0AB
:10068000849103C0EFE7F2E08491282F30E012C09C
:10069000E9E9F2E08491F9CFEBE6F2E029E030E01D
:1006A00009C0E0EFF1E020E430E004C0E0E0F0E079
:1006B00020E030E0ED93FC93C901089581E00895B6
:1006C000CF93DF93EC018091E80085FD0CC0809111
:1006D000E8008B778093E8000E941F0F882319F0B1
:1006E00020E030E032C08091F10088838091F100F9
:1006F00089838091F1008A838091F1008B838091BE
:10070000F1008C838091F1008D838091F1008E83C4
:100710008091F1008F838091F10088878091F100B2
:1007200089878091F1008A878091F1008B87809181
:10073000F1008C878091F1008D878091F1008E8788
:100740008091F1008F8720E130E0C901DF91CF91E6
:100750000895AF92BF92CF92DF92EF92FF920F93E4
:100760001F93CF93DF936A017B0159018DB79EB729
:1007700008970FB6F8949EBF0FBE8DBFEDB7FEB7BA
:10078000319683EE92E0ADB7BEB712969C938E93EE
:1007900011974283538364837583378326830E9432
:1007A0003F168DB79EB708960FB6F8949EBF0FBE42
:1007B0008DBF0E941F0F882309F456C062C080E0DD
:1007C0006CE572E0A701960101E010E065D1CCE58F
:1007D000D2E08091E80085FD09C08091E8008E7725
:1007E0008093E8000E941F0F882381F58881809301
:1007F000F10089818093F1008A818093F1008B81DF
:100800008093F1008C818093F1008D818093F100C1
:100810008E818093F1008F818093F1008885809391
:10082000F10089858093F1008A858093F1008B85A2
:100830008093F1008C858093F1008D858093F10089
:100840008E858093F1008F858093F100609694E00F
:10085000CC35D90709F0BDCF0894C11CD11CE11CCF
:10086000F11C0894A108B108A114B10409F0A7CFA4
:100870008091E80085FD05C08091E8008E77809327
:10088000E800DF91CF911F910F91FF90EF90DF90E3
:10089000CF90BF90AF900895AF92BF92CF92DF926A
:1008A000EF92FF920F931F93CF93DF935C016A0146
:1008B0007B01E9018DB79EB708970FB6F8949EBFEC
:1008C0000FBE8DBFEDB7FEB731968EEE92E0ADB79D
:1008D000BEB712969C938E93119742835383648381
:1008E0007583378326830E943F16EDB7FEB738968F
:1008F0000FB6F894FEBF0FBEEDBF0E941F0F8823F6
:1009000001F12DC0C80160E070E040E050E0D8DEA9
:10091000005F1F4FF6E00C351F07A1F780E06CE584
:1009200074E0A701960101E010E0A8D0D501D896A7
:100930008C918823A1F40894C11CD11CE11CF11CEA
:100940002197209719F00CE514E0DCCF8091E800A6
:1009500085FD05C08091E8008B778093E800DF91EA
:10096000CF911F910F91FF90EF90DF90CF90BF90AC
:10097000AF900895DF93CF9300D000D0CDB7DEB70E
:1009800020915C0630915D0640915E0650915F06B5
:100990002115310541055105A9F519821A821B82DD
:1009A0001C8280E061E0AE014F5F5F4F60D0298123
:1009B0003A814B815C8120935C0630935D064093C5
:1009C0005E0650935F0600D000D000D089EF92E021
:1009D000EDB7FEB7928381832383348345835683A7
:1009E0000E943F1620915C0630915D0640915E06A4
:1009F00050915F068DB79EB706960FB6F8949EBFCE
:100A00000FBE8DBFB901CA010F900F900F900F90CC
:100A1000CF91DF910895CF93DF9300D081E493E0ED
:100A2000EDB7FEB7928381830E943F160F900F901F
:100A3000C4E2D3E000D0EDB7FEB7D283C1830E94F9
:100A40003F160F900F9080E035D0882399F700D0A3
:100A50008AE093E0EDB7FEB7928381830E943F1650
:100A60000F900F90DF91CF9108953EC50895882390
:100A700011F084E00895862FBA015DC20F931F9391
:100A8000882311F084E005C0CB01BA01A9019801C7
:100A9000E7D11F910F9108950F931F93882311F0B1
:100AA00084E005C0CB01BA01A901980191D11F9141
:100AB0000F910895882311F081E00895EBC01CBCCC
:100AC00022982A9808958EBD0DB407FEFDCF8EB5ED
:100AD00008956AE070E00E940E16609361068FEF41
:100AE000F2DF982F8F3F21F0809161068823B9F7BC
:100AF00020E030E09F3F11F421E030E0C90108958B
:100B0000289A8FEFE0CF28988FEFDDDF84EF91E018
:100B1000E0DF892B19F021E030E003C0F1DF20E0B5
:100B200030E0C90108950F931F93CF93DF93EC0139
:100B30008B0184E1809360068FEFC5DF8F3F29F43E
:100B4000809160068823C1F71BC08E3FC9F49FEFD8
:100B50009EBD0DB407FEFDCF8EB588839EBD0DB43E
:100B600007FEFDCF8EB589830250104011F022960A
:100B7000EFCF8FEFA8DF8FEFA6DF21E030E002C0DC
:100B800020E030E0C901DF91CF911F910F910895CE
:100B90001F93CF93DF93EC01162F84EF91E099DF41
:100BA000892B19F420E030E022C0812F8CDF1D3F1B
:100BB000E1F020E032E088818EBD0DB407FEFDCF6C
:100BC00089818EBD0DB407FEFDCF2250304011F05B
:100BD0002296F1CF8FEF77DF8FEF75DF8FEF73DF27
:100BE00020E030E08F71853011F421E030E0C90160
:100BF000DF91CF911F910895DF92EF92FF920F93B3
:100C00001F93D82E7A018B0187FF0BC087E340E04A
:100C100050E060E070E0F0DF823008F035C08FE730
:100C2000D8228CE0D81631F06BDF6DDF892B11F400
:100C30008FEF2AC08D2D806446DF812F9927AA2748
:100C4000BB2741DFC801AA27BB273DDFBB27A12F58
:100C5000902F8F2D38DF8E2D36DFDD2011F485E9C2
:100C600006C088E0D81611F487E801C081E02BDFC8
:100C70008CE0D81611F48FEF26DF1AE08FEF23DF18
:100C800087FF02C01150D1F71F910F91FF90EF9095
:100C9000DF9008950F931F9312DF8AE08093600620
:100CA000809160068823E1F780911C0281FD8BC052
:100CB00087E085B984B983E58CBD82E58CBD1AE0F7
:100CC0008FEF01DF1150E1F780E040E050E060E09D
:100CD00070E092DF813009F067C084E6809360069F
:100CE00088E04AEA51E060E070E086DF813009F098
:100CF00037C08FEFE8DE8FEFE6DE8FEFE4DE182FF0
:100D00008FEFE1DE113009F04FC08A3A09F04CC094
:100D100080916006882341F089EA40E050E060E07D
:100D200070E46ADF8823A1F780916006882309F4C4
:100D30003BC08AE340E050E060E070E05DDF882384
:100D400099F58FEFC0DE182F8FEFBDDE8FEFBBDE82
:100D50008FEFB9DE16FD02C014E027C01CE025C0ED
:100D600089EA40E050E060E070E046DF823018F051
:100D700001E011E002C009EA12E0809160068823D8
:100D800041F0802F40E050E060E070E035DF8823E4
:100D9000A1F780916006882339F080E140E052E0BD
:100DA00060E070E029DF811110E010936206A8DE98
:100DB000112341F080911C028E7F80931C0281E5FB
:100DC0008CBD01C07CDE80911C021F910F910895A3
:100DD000FF920F931F93CF93DF938C01E9012115AD
:100DE000310511F484E036C080911C0280FF02C0FE
:100DF00083E030C08091620683FD07C0F9E0440FB4
:100E0000551F661F771FFA95D1F7C230D10518F428
:100E1000E1E1FE2E02C032E1F32E8F2DEDDE8823BC
:100E2000A1F4C80160E072E07EDE892B29F02197F1
:100E300019F000501E4FF5CF82E1F81631F48CE026
:100E400040E050E060E070E0D7DE5ADE80E0CD2B7D
:100E500009F081E0DF91CF911F910F91FF900895EC
:100E6000CF92DF92EF92FF920F931F93CF93DF9376
:100E70006C017A018B01E9012115310511F484E03F
:100E800051C080911C0280FF02C083E04BC0809162
:100E90001C0282FF02C082E045C08091620690E0A1
:100EA00083FD07C0A9E0EE0CFF1C001F111FAA95CF
:100EB000D1F7C130D10571F488E1B801A7019CDEFA
:100EC000882359F5C6016EEF63DE892B31F1C0E04E
:100ED000D0E023C086709070892B29F0AE0160E0CD
:100EE00070E087E989DE89E1B801A70185DE882302
:100EF000A1F4C6016CEF4CDE892B39F0219729F063
:100F000080E092E0C80ED91EF4CF80E090E06DEF53
:100F10003FDE892B11F4C1E0D0E0F2DD80E0CD2B83
:100F200009F081E0DF91CF911F910F91FF90EF9039
:100F3000DF90CF900895CF92DF92EF92FF920F93C0
:100F40001F93DF93CF93CDB7DEB760970FB6F894BA
:100F5000DEBF0FBECDBF982F7B0180911C0280FFAA
:100F600002C013E0B1C2933309F480C1943398F402
:100F7000933009F49BC0943028F4992311F19130F7
:100F8000F1F425C0973009F4ABC1923309F469C17B
:100F90009430A9F415C1963309F48FC1973330F416
:100FA000943309F465C1953351F46FC1983309F452
:100FB000FBC1983308F49CC1993309F445C214E08D
:100FC00083C2A1DD10E0892B09F07BC279C289E0E0
:100FD00040E050E060E070E00FDE882309F070C26E
:100FE000CE01019660E170E09EDD892B09F468C2B4
:100FF00089818295869586958370288569857A850D
:10100000813001F530E040E050E02F7330704070E7
:101010005070A901332722272F5F3F4F4F4F5F4F5B
:10102000962F80E0870F911DA0E0B0E0280F391FB8
:101030004A1F5B1FAAE0220F331F441F551FAA95AA
:10104000D1F72DC0629566956695637030E0220FEA
:10105000331F220F331F260F311D2F5F3F4F8F810C
:1010600090E083709070982F8827990F990F280F20
:10107000391F40E050E08E818F706B85661F6627B8
:10108000661F860F8E5F7370770F870F90E009974A
:1010900004C0220F331F441F551F8A95D2F7F70152
:1010A000208331834283538310E00BC28091620618
:1010B000182F82FF2CC08DE840E050E060E070E027
:1010C0009BDD882309F0FCC18FEFFDDCCE0101968A
:1010D00060E170E028DD892B09F4F2C110E38FEFA5
:1010E000F2DC1150E1F72B8522952F7080E190E022
:1010F000A0E0B0E004C0880F991FAA1FBB1F2A956B
:10110000D2F7F70180839183A283B383DAC189E0A8
:1011100040E050E060E070E06FDD882309F0D0C16E
:10112000CE01019660E170E0FEDC892B09F4C8C1B4
:101130004B858C8511FF1BC0881F8827881F90E076
:101140000196242F30E02F733070220F331F820F4F
:10115000931F2E85229526952695237030E02150E9
:10116000304002C0880F991F2A95E2F721C0282F2E
:1011700030E02370307053E0220F331F5A95E1F7AF
:10118000829586958770280F311D2F5F3F4F842FE2
:1011900090E08C77907095958795959587950196B9
:1011A000AC01249FC001259F900D349F900D112408
:1011B000A0E0B0E0F70180839183A283B38374CF72
:1011C00080916206C82EDD24C60186709070892B3E
:1011D00009F479C183E3BE016F5F7F4FACDE8823E2
:1011E00009F071C18981829586958695837019F47D
:1011F0008B8586FF68C1F7014081518162817381CF
:10120000E480F58006811781C3FC0EC029E0440FFD
:10121000551F661F771F2A95D1F799E0EE0CFF1C2A
:10122000001F111F9A95D1F780E2E6DC882309F0B0
:101230004AC181E2B801A701DFDC882309F043C17C
:1012400086E240E050E060E070E0D6DC882309F000
:101250003AC180E395E73DDC10E0892B09F034C109
:1012600032C180916206FB01808340C089E001C0E9
:101270008AE040E050E060E070E0BEDC882309F0E6
:101280001FC1C70160E170E026C08AE340E050E082
:1012900060E070E0B1DC882309F012C1870184E0CE
:1012A000E82EF12CE00EF11E8FEF0DDCF80181939A
:1012B0008F01EE15FF05C1F7F7CE8DE840E050E055
:1012C00060E070E099DC882309F0FAC08FEFFBDB67
:1012D000C70160E470E027DC892B09F4F1C0E4CE9B
:1012E000EEDB80911C02816080931C0210E0ECC058
:1012F000FB01438154816581768109E0440F551FCC
:10130000661F771F0A95D1F77068808190E0A0E092
:10131000B0E01CE1880F991FAA1FBB1F1A95D1F7D7
:10132000482B592B6A2B7B2B818192810197A0E05E
:10133000B0E09170A070B070482B592B6A2B7B2BBA
:1013400080E35ADC882309F0BBC084E68093600602
:101350008FEFB9DB8F3F29F4809160068823C1F7B6
:10136000AFC08E3F09F0ACC0F701C780D0840181C7
:10137000128107C08FEFA7DBF60181936F01015047
:10138000104001151105B1F702E012E0F70181816B
:101390009281081B190B04C08FEF95DB01501040A0
:1013A00001151105C9F780CEFB0143815481658188
:1013B000768139E0440F551F661F771F3A95D1F7A4
:1013C0007068808190E0A0E0B0E02CE1880F991F68
:1013D000AA1FBB1F2A95D1F7482B592B6A2B7B2BB1
:1013E000818192810197A0E0B0E09170A070B0700F
:1013F000482B592B6A2B7B2B81E3FEDB882309F0DA
:101400005FC08FEF60DB8EEF5EDBF701C780D084BB
:101410000181128106C0F60181916F0154DB0150F8
:10142000104001151105B9F702E012E0F7018181C2
:101430009281081B190B04C08FEF45DB015010404F
:1014400001151105C9F736C0FB014381548165813F
:10145000768109E0440F551F661F771F0A95D1F763
:101460007468808190E0A0E0B0E01CE1880F991FD3
:10147000AA1FBB1F1A95D1F7482B592B6A2B7B2B20
:10148000828190E0A0E0B0E0482B592B6A2B7B2BA7
:1014900081E3B2DB8823A1F48FEF15DB8EEF13DB42
:1014A000F701818110DB01E012E08FEF0CDB0150CE
:1014B0001040D9F78FEF07DB8F71853009F4F4CD39
:1014C00011E01EDB01C011E0812F60960FB6F89489
:1014D000DEBF0FBECDBFCF91DF911F910F91FF9067
:1014E000EF90DF90CF90089580916006882319F0E7
:1014F00081508093600680916106882319F08150A5
:101500008093610680911C020895BF92CF92DF9272
:10151000EF92FF920F931F93CF93DF936C01B62E40
:10152000FC01E0A0F78C068D158DC3A1D2A122DAB3
:10153000E616F7060807190768F080911F02807FFA
:10154000856080931F0281E28093290210922A0213
:1015500080E025C0BB2031F0C601B801A7019E0183
:10156000F8D805C0C601B801A7019E0195D99E0112
:1015700040E050E089E0220F331F441F551F8A9539
:10158000D1F7F60184899589A689B789821B930BC7
:10159000A40BB50B848B958BA68BB78B81E0DF9169
:1015A000CF911F910F91FF90EF90DF90CF90BF9060
:1015B0000895CF92DF92EF92FF920F931F93DF93E4
:1015C000CF93CDB7DEB728970FB6F894DEBF0FBE26
:1015D000CDBF6C01FC01838D8D3109F4AAC08E3121
:1015E00090F4823119F1833138F4882309F4DFC093
:1015F000833009F0E2C04DC08A3109F4BEC08B319E
:1016000009F0DBC0D4C0883209F4B1C0893238F4A3
:101610008E3109F4CCC0853209F0CFC05DC08A326A
:1016200009F4A2C08F3209F0C8C0C1C0F601078D0D
:10163000168D848D90E083709070892B09F07DC0A9
:10164000858D882309F079C078010532110518F0DD
:1016500094E2E92EF12C8FE292E0B70140E050E0F5
:10166000C6D2C8018E199F0960E070E011D3809145
:10167000E8008E778093E800970140E050E0F601A3
:1016800084899589A689B789821B930BA40BB50B16
:1016900089C0F601178D012F133108F002E18DE1A9
:1016A00092E0602F70E040E050E0A1D2812F90E006
:1016B000801B910960E070E0EBD28091E8008E77AA
:1016C0008093E800F60184899589A689B789801BF3
:1016D0009109A109B10966C04DD96150704080409F
:1016E000904069837A838B839C8380E092E0A0E0C2
:1016F000B0E08D839E83AF83B887CE01019664E00E
:1017000070E040E050E022D2CE01059664E070E047
:1017100040E050E01BD28091E8008E778093E80093
:10172000F60184899589A689B7890897A109B10925
:1017300039C0F601848D82FD08C080911F02807F30
:10174000856080931F0284E23FC00E945E0388236D
:1017500071F580911F02807F846080931F02109238
:10176000290210922A0233C0C60160E002C0C601FD
:1017700061E0CBDE882359F12CC01092F100109269
:10178000F1001092F1001092F1008091E8008E7744
:101790008093E800F60184899589A689B789049722
:1017A000A109B109848B958BA68BB78B12C0F6016A
:1017B000148A158A168A178A0CC080911F02807FAE
:1017C000856080931F0280E280932902CACF80E067
:1017D0000AC080911F02807F80931F02109229020D
:1017E00010922A0281E028960FB6F894DEBF0FBE51
:1017F000CDBFCF91DF911F910F91FF90EF90DF90C0
:10180000CF900895982F8091C80085FFFCCF9093CA
:10181000CE0080E090E008958091C80087FD03C06D
:101820002EEF3FEF0BC08091C80087FD03C02FEF64
:101830003FEF04C08091CE00282F30E0C901089509
:10184000FC0107C08091C80085FFFCCF9093CE00BB
:10185000319690819923B1F70895FC01009759F4CE
:1018600085E696E0909381068093800690938306A8
:1018700080938206FC018EE0DF011D928A95E9F7D4
:1018800083E0838382E09CE0918780878CE09CE00A
:101890009387828708959C0140917E0650917F0630
:1018A0004617570718F4F90190E03DC0611571051E
:1018B00011F0AB01F8CF8091E8008E778093E800BB
:1018C00040E050E0F0CF80917706882309F441C0D2
:1018D000853009F440C08091E80083FD3EC08091CE
:1018E000E80082FD30C08091E80080FF1CC020919C
:1018F000F2003091F30007C081918093F1004150D4
:1019000050402F5F3F4F4115510519F028303105E8
:1019100098F390E02830310509F491E08091E800D7
:101920008E778093E8004115510569F6992359F6A1
:101930000AC080917706882361F0853061F080913C
:10194000E80083FD0AC08091E80082FFF2CF80E0CA
:10195000089582E0089583E0089581E008959C0150
:101960006115710529F48091E8008B778093E80078
:10197000F90122C080917706882371F1853071F1D9
:101980008091E80083FF02C081E008958091E80023
:1019900082FFF0CF06C08091F100819361507040CA
:1019A00031F08091F2009091F300892BA1F78091A2
:1019B000E8008B778093E80061157105D9F606C0C1
:1019C00080917706882341F0853041F08091E800CE
:1019D00080FFF6CF80E0089582E0089583E00895C7
:1019E0009C0140917E0650917F064617570718F4D8
:1019F000F90190E03EC06115710511F0AB01F8CF1F
:101A00008091E8008E778093E80040E050E0F0CFCE
:101A100080917706882309F442C0853009F441C0DB
:101A20008091E80083FD3FC08091E80082FD31C0D5
:101A30008091E80080FF1DC02091F2003091F300FA
:101A400008C084918093F1003196415050402F5F3F
:101A50003F4F4115510519F02830310590F390E0C2
:101A60002830310509F491E08091E8008E77809369
:101A7000E8004115510561F6992351F60AC080919D
:101A80007706882361F0853061F08091E80083FD5E
:101A90000AC08091E80082FFF2CF80E0089582E0E2
:101AA000089583E0089581E00895BF92CF92DF9278
:101AB000EF92FF920F931F93CF93DF93182F092F6D
:101AC0007B016A01BCD1B82E8823A9F5812F902F04
:101AD0009C01E901C114D10439F0F60180819181A2
:101AE000E81AF90AC80FD91F00E010E021C0809160
:101AF000E80085FD15C08091E8008B778093E800B1
:101B0000C114D10449F0F60180819181800F911FA9
:101B10009183808385E010C092D1882349F00CC066
:101B20008091F10089930894E108F1080F5F1F4F3D
:101B3000E114F104E1F68B2DDF91CF911F910F910C
:101B4000FF90EF90DF90CF90BF900895BF92CF921B
:101B5000DF92EF92FF920F931F93CF93DF938C014D
:101B6000EB016A016CD1B82E8823B1F521970C0FD7
:101B70001D1F2196C114D10439F0F6018081918195
:101B8000C81BD90B081B190BEE24FF2423C080911E
:101B9000E80085FD15C08091E8008E778093E8000D
:101BA000C114D10449F0F601808191818E0D9F1DF1
:101BB0009183808385E011C042D1882359F00DC004
:101BC000F80180818093F100015010402197089422
:101BD000E11CF11C2097D9F68B2DDF91CF911F913D
:101BE0000F91FF90EF90DF90CF90BF900895BF923C
:101BF000CF92DF92EF92FF920F931F93CF93DF93D9
:101C0000182F092F7B016A011AD1B82E8823A9F554
:101C1000812F902F9C01E901C114D10439F0F60104
:101C200080819181E81AF90AC80FD91F00E010E0FD
:101C300021C08091E80085FD15C08091E8008E7775
:101C40008093E800C114D10449F0F60180819181AC
:101C5000800F911F9183808385E010C0F0D088238E
:101C600049F00CC089918093F1000894E108F108D3
:101C70000F5F1F4FE114F104E1F68B2DDF91CF913F
:101C80001F910F91FF90EF90DF90CF90BF9008953C
:101C9000DF92EF92FF920F931F93CF93DF93EC01AC
:101CA0008B01CDD0D82E882361F50115110529F0BF
:101CB000F80180819181C81BD90BEE24FF241FC03D
:101CC0008091E80085FD15C08091E8008E778093B3
:101CD000E8000115110549F0F801808191818E0D10
:101CE0009F1D9183808385E00DC0A9D0882339F0A2
:101CF00009C01092F10021970894E11CF11C209773
:101D0000F9F68D2DDF91CF911F910F91FF90EF90FC
:101D1000DF900895382F282F2EC0822F8F70809348
:101D2000E900231721F4762F942F50E006C070911C
:101D3000EC009091ED005091F00091FF1BC080915C
:101D4000EB008E7F8093EB008091ED008D7F809380
:101D5000ED008091EB0081608093EB007093EC00CC
:101D60009093ED005093F0008091EE0087FD02C04B
:101D700080E008952F5F273080F23F703093E900B4
:101D800081E008950F931F93CF93DF93062FEC010B
:101D900010E02AC09881992329F16B81E981FA81A9
:101DA0002C81892F8F70873018F5223010F452E083
:101DB00001C056E040E028E030E003C04F5F220F52
:101DC000331F2E173F07D0F36295660F660F607CB6
:101DD000991F9927991F692B4295407F452B9ADFC0
:101DE000882331F01F5F25961017A0F281E001C013
:101DF00080E0DF91CF911F910F9108958091780637
:101E000088239CF404C0809177068823B9F08091E0
:101E1000E80082FFF8CF8091E8008B778093E8009C
:101E2000089580917706882349F08091E80080FF2B
:101E3000F8CF8091E8008E778093E8000895409174
:101E4000E4005091E50024E68091EC0080FF24C07E
:101E50008091E80080FD1EC080917706882311F4F0
:101E600082E00895853011F483E008958091EB00BD
:101E700085FF02C081E008958091E4009091E50023
:101E80008417950709F3222311F484E00895215063
:101E9000AC01DACF80E008958091E80082FFDCCFCA
:101EA000F9CFEF92FF920F931F9352D059D008EDC4
:101EB00010E0F80180818F77808380818068808343
:101EC00080818F7D8083E7EDF0E080818068808372
:101ED00019BC109277061092730610927506109234
:101EE000740680EEE82EF12CF70180818B7F8083D1
:101EF000F80180818160808380E060E042E00ADF59
:101F0000E1EEF0E080818E7F8083E2EEF0E0808180
:101F100081608083808188608083F70180818E7FEB
:101F20008083F8018081806180831F910F91FF90F1
:101F3000EF900895E8EDF0E080818F7E8083E7EDFB
:101F4000F0E080818160808381E080937606A9CF74
:101F5000E8EDF0E080818C7F80831092E2000895AC
:101F60001092DA001092E10008951F920F920FB6BE
:101F70000F920BB60F9211241F932F933F934F9301
:101F80005F936F937F938F939F93AF93BF93EF93E1
:101F9000FF931091E9008091EC001092E90080918C
:101FA000F000877F8093F0007894F0D01092E900E1
:101FB0008091F00088608093F0001F701093E9001A
:101FC000FF91EF91BF91AF919F918F917F916F9111
:101FD0005F914F913F912F911F910F900BBE0F90EA
:101FE0000FBE0F901F9018951F920F920FB60F9271
:101FF0000BB60F9211242F933F934F935F936F93E0
:102000007F938F939F93AF93BF93EF93FF938091B1
:10201000E10082FF0BC08091E20082FF07C0809147
:10202000E1008B7F8093E1000E94C2018091DA0081
:1020300080FF1FC08091D80080FF1BC08091DA0014
:102040008E7F8093DA008091D90080FF0DC08CE0F4
:1020500089BD8EE089BD09B400FEFDCF81E080938B
:1020600077060E94320205C019BC109277060E94C2
:1020700022028091E10080FF18C08091E20080FF81
:1020800014C08091E2008E7F8093E2008091E20094
:1020900080618093E2008091D80080628093D800B4
:1020A00019BC85E080937706E4D18091E10084FF3C
:1020B0002FC08091E20084FF2BC08CE089BD8EE0B0
:1020C00089BD09B400FEFDCF8091D8008F7D80933B
:1020D000D8008091E1008F7E8093E1008091E20042
:1020E0008F7E8093E2008091E20081608093E20025
:1020F00080917306882311F084E007C08091E3008B
:1021000087FD02C081E001C083E080937706B1D1F2
:102110008091E10083FF27C08091E20083FF23C00C
:102120008091E100877F8093E10082E080937706D1
:10213000109273068091E1008E7F8093E100809180
:10214000E2008E7F8093E2008091E20080618093C4
:10215000E20080E060E042E0DDDD8091F000886038
:102160008093F00086D1FF91EF91BF91AF919F9145
:102170008F917F916F915F914F913F912F910F9030
:102180000BBE0F900FBE0F901F9018951F93DF93FB
:10219000CF93CDB7DEB7AC970FB6F894DEBF0FBEC6
:1021A000CDBFE8E7F6E08091F100819326E0E038CA
:1021B000F207C9F70E941A028091E80083FF41C12B
:1021C0008091780630917906353009F48DC036302B
:1021D00040F43130E1F1313070F0333009F031C189
:1021E00036C0383009F4FEC0393009F40DC136303C
:1021F00009F027C19CC0803821F0823809F021C144
:1022000008C090917406809175068823B1F09260A1
:1022100014C080917C068F70873008F012C18093C3
:10222000E9008091EB0090E025E0969587952A954E
:10223000E1F7982F91701092E9008091E800877F74
:102240008093E8009093F1001092F100D6C08823AB
:1022500019F0823009F0F5C090E08F71907000970E
:1022600021F0029709F0EDC00CC080917A06813010
:1022700009F0E7C010927506333081F5809375063A
:102280002DC080917A06882349F520917C062F7015
:10229000822F8150863008F0D4C02093E9008091CD
:1022A000EB0080FF1BC0333021F48091EB00806293
:1022B00013C08091EB0080618093EB0081E090E09F
:1022C00002C0880F991F2A95E2F78093EA001092C6
:1022D000EA008091EB0088608093EB001092E900A7
:1022E0008091E800877F8CC0882309F0AAC01091F4
:1022F0007A061F778091E3008078812B8093E3003A
:102300008091E800877F8093E80078DD8091E80085
:1023100080FFFCCF8091E30080688093E30011236D
:1023200011F482E001C083E0809377068AC0805870
:10233000823008F086C080917A0690917B0623E077
:102340008C3D920709F033C083E08C838AE28B8353
:102350007FB7F894DE0115966EE040E050E011E2A0
:10236000E62FF0E010935700849140FF03C0829560
:102370008F706F5F8F70282F30E08A3018F0C9019E
:10238000C79602C0C901C0968D939D934F5F5F4F62
:102390004431510529F77FBF8091E800877F809302
:1023A000E800CE0103966AE270E075DA15C060912C
:1023B0007C0670917D06AE014F5F5F4F0E941E0349
:1023C000BC01009709F43DC08091E800877F8093AD
:1023D000E80089819A8104DB8091E8008B77809303
:1023E000E8002FC0803869F58091E800877F8093EE
:1023F000E800809173068093F1008091E8008E7769
:102400008093E800FBDC1DC08823D9F490917A0604
:102410009230B8F48091E800877F8093E800909331
:102420007306ECDC80917306882331F48091E3001D
:1024300087FD02C081E001C084E0809377060E949E
:1024400042028091E80083FF0AC08091E800877F04
:102450008093E8008091EB0080628093EB00AC9663
:102460000FB6F894DEBF0FBECDBFCF91DF911F91A5
:10247000089508951F9380917706882371F0109135
:10248000E9008091EC001092E9008091E80083FF60
:1024900001C07CDE1F701093E9001F9108954F92D8
:1024A0005F926F927F928F929F92AF92BF92CF92E4
:1024B000DF92EF92FF920F931F93DF93CF9300D0A1
:1024C0000F92CDB7DEB77C016DB67EB680917706F0
:1024D000843009F09AC02091E4003091E500F701C2
:1024E000828593858217930709F48FC081818F704D
:1024F0008093E9008091E80085FF87C05DB64EB605
:10250000408550E08DB79EB7841B950B0FB6F894AD
:102510009EBF0FBE8DBF0DB71EB70F5F1F4F198235
:102520001B821A82C02E912EC80160E070E050E03C
:102530009FD3C701BE016F5F7F4F40E098018E01BE
:102540000E5F1F4F0E94CE01882EF701848595856E
:10255000892B19F4AA24BB240BC020E0F70186853F
:102560009785892B09F021E081E02827A22EBB2442
:10257000F701068117810115110511F4DD2412C040
:102580004A815B818C2D992DB8015CD3DD240097A5
:1025900011F0DD24D394F7014085C8016C2D792D0D
:1025A00050E05DD38A819B81892B01F1882021F441
:1025B000DD2011F4AB28D1F0F7018485958597874C
:1025C000868781818F708093E9008981882311F04B
:1025D0008093F1006A817B818C2D992D40E050E041
:1025E00006DB8091E8008E778093E8008091E4001C
:1025F0009091E500F70193878287252D342DC9013D
:102600000FB6F8949EBF0FBE8DBF0FB6F8947EBE76
:102610000FBE6DBE0F900F900F90CF91DF911F9165
:102620000F91FF90EF90DF90CF90BF90AF909F9071
:102630008F907F906F905F904F900895CF93DF932E
:10264000DC010996FC0187E0EF0119928A95E9F710
:1026500081E019968C93199784EF91E01D969C93D5
:102660008E931C9783E014968C931497CD0101965A
:1026700061E088DB811181E0DF91CF9108956F9255
:102680007F928F929F92AF92BF92CF92DF92EF9202
:10269000FF920F931F93DF93CF9300D00F92CDB78C
:1026A000DEB76C016DB67EB68091E80083FF1AC17B
:1026B000F601808190E020917C0630917D062817FC
:1026C000390709F00FC180917906833009F4B2C04F
:1026D000843030F4813071F0823009F003C1E6C0FB
:1026E0008A3009F4CBC08B3009F4B5C0893009F0C9
:1026F000F9C05CC080917806813A09F0F3C09DB6BC
:102700008EB61B821A8280917A0610917B0689838D
:10271000F601408550E08DB79EB7841B950B0FB630
:10272000F8949EBF0FBE8DBFEDB6FEB60894E11CB7
:10273000F11CBE2CAF2CC70160E070E050E098D2D5
:102740001150C601BE016F5F7F4F412F97018E016F
:102750000E5F1F4F0E94CE01F601268137812115A1
:10276000310529F04085C901B70150E078D21092B7
:10277000E9008091E800877F8093E80089818823C1
:1027800011F08093F1006A817B818B2D9A2D83D883
:102790008091E8008B778093E800292D382DC901BE
:1027A0000FB6F8949EBF0FBE8DBF9CC08091780677
:1027B000813209F097C09DB68EB600917E061091C9
:1027C0007F06A0907A06B0907B068DB79EB7801BDF
:1027D000910B0FB6F8949EBF0FBE8DBFEDB6FEB63F
:1027E0000894E11CF11C8091E800877F8093E80049
:1027F000C701B801B4D88091E8008E778093E800D3
:1028000080E090E0AA2011F081E090E0BA94E80E18
:10281000F91E081B190BC6016A2D4B2D97010E944A
:102820000102892D982D9C010FB6F8943EBF0FBE72
:102830002DBF58C080917806813A09F053C080912D
:10284000E800877F8093E8008091E80080FFFCCF5C
:10285000F60181853FC080917806813209F042C03F
:102860008091E800877F8093E800C8DA90E080914B
:102870007A06811191E0F601918734C08091780643
:10288000813281F58091E800877F8093E800B6DA95
:1028900080917A0690917B06807036E096958795B8
:1028A0003A95E1F7F601958784871CC080917806F8
:1028B000813AC1F48091E800877F8093E80080919D
:1028C000E80080FFFCCFF601848595859695879575
:1028D000969587958093F1008091E8008E7780939C
:1028E000E8008CDA0FB6F8947EBE0FBE6DBE0F9076
:1028F0000F900F90CF91DF911F910F91FF90EF906C
:10290000DF90CF90BF90AF909F908F907F906F900F
:102910000895CF92DF92EF92FF920F931F93DF9370
:10292000CF9300D0CDB7DEB78C018091770684308D
:1029300009F010C1F80196819F709093E900809191
:10294000E80082FFCDC09093E9001A8219822CE042
:10295000E22EF12CE00EF11E6E010894C11CD11C78
:1029600005C0F80180AD882309F0BAC0C7016FE047
:1029700070E0A6019AD88530A1F3F8018485958589
:10298000A685B78585559345A244B34481F4F801E3
:10299000918D8385981758F4808D90E08F71907099
:1029A000892B29F4828D882311F0813180F0809168
:1029B000EB0080628093EB00F80181818F7080933F
:1029C000E9008091EB0080628093EB0089C01A825D
:1029D00019829BE1E92EF12CE00EF11E6E010894A4
:1029E000C11CD11C05C0F80180AD882309F078C056
:1029F000F801628DC70170E0A60157D8853099F3C0
:102A00008091E8008B778093E800F801808D87FF44
:102A100004C081818F708093E900C8010E940F0279
:102A200091E09827F80197AB25E533E542E453E5BB
:102A300023A734A745A756A72089318942895389FE
:102A400027A730AB41AB52AB2489358946895789DA
:102A500023AB34AB45AB56AB882351F4211531057C
:102A60004105510529F08091EB0080628093EB00D5
:102A7000F80186818F708093E90004C0F80180AD71
:102A8000882371F58091EB0085FDF8CFF8018181F5
:102A90008F708093E90004C0F80180AD882301F5B0
:102AA0008091EB0085FDF8CF1A8219828BE2E82E27
:102AB000F12CE00EF11E6E010894C11CD11C04C063
:102AC000F80180AD882361F4C7016DE070E0A601D4
:102AD0008ED88530A9F38091E8008E778093E80046
:102AE000F80180AD8823B1F14681842F8F7021E0F9
:102AF00030E0B90102C0660F771F8A95E2F7609354
:102B0000EA001092EA009181892F8F7002C0220F93
:102B1000331F8A95E2F72093EA001092EA004F7083
:102B20004093E9008091EB0080618093EB008091FD
:102B3000EB0088608093EB009F709093E900809198
:102B4000EB0080618093EB008091EB0088608093C4
:102B5000EB0010AE0F900F90CF91DF911F910F916E
:102B6000FF90EF90DF90CF900895CF93DF93EC012B
:102B70000C96FC018DE2DF011D928A95E9F782E057
:102B80008C838987CE01019661E0FCD8882331F0DF
:102B9000CE01069661E0F6D8811181E0DF91CF91F8
:102BA0000895CF93DF93EC018091E80083FF33C059
:102BB000888190E020917C0630917D0628173907A6
:102BC00051F5809179068E3F79F08F3F21F5809104
:102BD0007806813201F58091E800877F8093E800D4
:102BE0000DD981E088AF17C080917806813A99F4B9
:102BF0008091E800877F8093E8008091E80080FF63
:102C0000FCCF8B8581508093F1008091E8008E7716
:102C10008093E800F3D8DF91CF910895AA1BBB1BE6
:102C200051E107C0AA1FBB1FA617B70710F0A61BCC
:102C3000B70B881F991F5A95A9F780959095BC01ED
:102C4000CD010895FB01DC0104C08D910190801934
:102C500021F441505040C8F7881B990B0895FB019F
:102C6000DC0102C001900D9241505040D8F7089508
:102C7000DC0101C06D9341505040E0F70895DF93AF
:102C8000CF93CDB7DEB7FE01359661917191A091DA
:102C90008206B091830613968C91139788601396E1
:102CA0008C938091820690918306AF013FD0E09192
:102CB0008206F09183062381277F2383CF91DF91C2
:102CC00008950F931F93CF93DF938C01E0918206B9
:102CD000F0918306838181FF21C0C0E0D0E00DC068
:102CE000E0918206F091830620853185BF01F901CC
:102CF0000995892B11F0CFEFDFEFF80181918F015A
:102D0000882371F7E0918206F09183062085318552
:102D10008AE0BF01F9010995892B11F0CFEFDFEFB0
:102D2000CE01DF91CF911F910F9108952F923F9285
:102D30004F925F926F927F928F929F92AF92BF92CB
:102D4000CF92DF92EF92FF920F931F93DF93CF9377
:102D5000CDB7DEB72B970FB6F894DEBF0FBECDBF51
:102D60003C012B015A01FC0117821682838181FDEF
:102D700003C06FEF7FEFB9C19AE0892E1E0108945E
:102D8000211C311CF3012381F20123FD859123FFD6
:102D900081912F01882309F4A5C1853239F423FDDF
:102DA000859123FF81912F01853221F490E0B301B9
:102DB000CCD1E8CF982FFF24EE249924FFE1FF1512
:102DC000D0F09B3269F09C3228F4903259F0933263
:102DD00091F40EC09D3249F0903369F441E024C073
:102DE00052E0F52A84E0F82A28C098E0F92A25C0A4
:102DF000E0E1FE2A22C0F7FC29C0892F80538A30E7
:102E000070F4F6FE05C0989C902C1124980E15C005
:102E1000E89CE02C1124E80EF0E2FF2A0EC09E325E
:102E200029F4F6FC5FC140E4F42A07C09C3619F48B
:102E300050E8F52A02C0983649F4F20123FD959135
:102E400023FF91912F01992309F0B8CF892F855441
:102E5000833018F08052833038F444E050E0A40E00
:102E6000B51E5FE359830FC0933631F0933779F085
:102E7000933509F052C01FC0F5018081898342E07B
:102E800050E0A40EB51E610101E010E011C0F50193
:102E9000C080D180F6FC03C06FEF7FEF02C0692DC8
:102EA00070E042E050E0A40EB51EC60143D18C0193
:102EB0005FE7F52213C0F501C080D180F6FC03C0A6
:102EC0006FEF7FEF02C0692D70E042E050E0A40E8A
:102ED000B51EC60124D18C0150E8F52AF3FE06C0C8
:102EE00018C080E290E0B30130D1EA948E2D90E0DA
:102EF00008171907B0F30DC0F601F7FC8591F7FE2E
:102F000081916F0190E0B30120D1E110EA9401506A
:102F100010400115110581F7E2C0943611F0993681
:102F200061F5F7FE08C0F5012081318142815381AE
:102F300084E090E00AC0F501808191819C014427E2
:102F400037FD4095542F82E090E0A80EB91E9FE611
:102F5000F92257FF09C050954095309521953F4F74
:102F60004F4F5F4FE0E8FE2ACA01B901A1012AE0F4
:102F700030E017D1D82ED2183FC0953729F41F2D35
:102F80001F7E2AE030E01DC01F2D197F9F3661F0A3
:102F9000903720F4983509F0A5C00FC0903739F06C
:102FA000983709F09FC004C028E030E00AC01061E3
:102FB00014FD146020E130E004C014FD166020E12F
:102FC00032E017FF08C0F501608171818281938131
:102FD00044E050E008C0F50180819181BC0180E0AF
:102FE00090E042E050E0A40EB51EA101DAD0D82E48
:102FF000D2188FE7F82EF122F6FE0BC05EEFF52215
:10300000D91438F4F4FE07C0F2FC05C08FEEF822A4
:1030100002C01D2D01C0192DF4FE0DC0FE01ED0DE5
:10302000F11D8081803319F499EEF92208C01F5FE9
:10303000F2FE05C003C08F2D867809F01F5F0F2DAB
:10304000F3FC13C0F0FE0EC01E1510F09D2C0AC03C
:103050009D2C9E0C911A1E2D05C080E290E0B301BC
:1030600074D01F5F1E15C8F304C01E1510F4E11ABA
:1030700001C0EE2404FF0EC080E390E0B30165D0F0
:1030800002FF1BC001FD03C088E790E00EC088E589
:1030900090E00BC0802F867881F001FF02C08BE2A8
:1030A00001C080E2F7FC8DE290E0B3014ED005C094
:1030B00080E390E0B30149D09A94D914C8F3DA942C
:1030C000F101ED0DF11D808190E0B3013ED0DD20D6
:1030D000B1F705C080E290E0B30137D0EA94EE206A
:1030E000C9F750CEF30166817781CB012B960FB6DD
:1030F000F894DEBF0FBECDBFCF91DF911F910F912E
:10310000FF90EF90DF90CF90BF90AF909F908F9007
:103110007F906F905F904F903F902F900895FC01AB
:103120000590615070400110D8F7809590958E0FF2
:103130009F1F0895FC016150704001900110D8F765
:10314000809590958E0F9F1F08950F931F93CF9397
:10315000DF938C01EB018B8181FF1BC082FF0DC0CF
:103160002E813F818C819D812817390764F4E88185
:10317000F9810193F983E88306C0E885F985802FFA
:103180000995892B31F48E819F8101969F838E83CF
:1031900002C00FEF1FEFC801DF91CF911F910F9178
:1031A0000895FA01AA27283051F1203181F1E894DD
:1031B0006F936E7F6E5F7F4F8F4F9F4FAF4FB1E02A
:1031C0003ED0B4E03CD0670F781F891F9A1FA11D25
:1031D000680F791F8A1F911DA11D6A0F711D811D26
:1031E000911DA11D20D009F468943F912AE0269FEB
:1031F00011243019305D3193DEF6CF010895462F4A
:103200004770405D4193B3E00FD0C9F7F6CF462F2A
:103210004F70405D4A3318F0495D31FD4052419393
:1032200002D0A9F7EACFB4E0A69597958795779550
:103230006795BA95C9F700976105710508959B01D7
:10324000AC010A2E06945795479537952795BA9560
:10325000C9F7620F731F841F951FA01D0895F8946E
:02326000FFCF9E
:103262000D0A0D0A5365747570206D6173732073B6
:10327200746F7261676520736420616E64206B6590
:1032820079626F6172642061646170746564206246
:1032920079204461766964205265677565726120A0
:1032A20047617263696120616B61204472656720C6
:1032B20068747470733A2F2F6769746875622E632D
:1032C2006F6D2F44617669642D5265677565726111
:1032D2002D4761726369612D44726567202D2068F4
:1032E2007474703A2F2F7777772E66723333707239
:1032F2006F6A6563742E6F72670D0A007573696E6B
:103302006720666174667320687474703A2F2F6543
:103312006C6D2D6368616E2E6F72672F6673772FE7
:1033220066662F3030696E6465785F652E68746DED
:103332006C0D000083400000010440000001010008
:10334200000000000000000000000000000000007B
:10335200000000000000000000000000000000006B
:1033620000000000000000000000000001810800D1
:10337200000154020800000000000000017000007B
:10338200000000000A000000000000000000000031
:103392008000021F0000004C55464100000000441E
:1033A200617461666C617368204469736B000030FC
:0433B2002E30300089
:00000001FF
